{
	"contracts/ERC20.sol": {
		"BlockToken": {
			"abi": [
				{
					"inputs": [],
					"stateMutability": "payable",
					"type": "constructor"
				},
				{
					"anonymous": false,
					"inputs": [
						{
							"indexed": true,
							"internalType": "address",
							"name": "owner",
							"type": "address"
						},
						{
							"indexed": true,
							"internalType": "address",
							"name": "spender",
							"type": "address"
						},
						{
							"indexed": false,
							"internalType": "uint256",
							"name": "value",
							"type": "uint256"
						}
					],
					"name": "Approval",
					"type": "event"
				},
				{
					"anonymous": false,
					"inputs": [
						{
							"indexed": true,
							"internalType": "address",
							"name": "reciever",
							"type": "address"
						},
						{
							"indexed": false,
							"internalType": "uint256",
							"name": "value",
							"type": "uint256"
						}
					],
					"name": "BoughtToken",
					"type": "event"
				},
				{
					"anonymous": false,
					"inputs": [
						{
							"indexed": true,
							"internalType": "address",
							"name": "from",
							"type": "address"
						},
						{
							"indexed": true,
							"internalType": "address",
							"name": "to",
							"type": "address"
						},
						{
							"indexed": false,
							"internalType": "uint256",
							"name": "value",
							"type": "uint256"
						}
					],
					"name": "Transfer",
					"type": "event"
				},
				{
					"inputs": [
						{
							"internalType": "address",
							"name": "owner",
							"type": "address"
						},
						{
							"internalType": "address",
							"name": "delegate",
							"type": "address"
						}
					],
					"name": "allowance",
					"outputs": [
						{
							"internalType": "uint256",
							"name": "",
							"type": "uint256"
						}
					],
					"stateMutability": "view",
					"type": "function"
				},
				{
					"inputs": [
						{
							"internalType": "address",
							"name": "delegate",
							"type": "address"
						},
						{
							"internalType": "uint256",
							"name": "numTokens",
							"type": "uint256"
						}
					],
					"name": "approve",
					"outputs": [
						{
							"internalType": "bool",
							"name": "",
							"type": "bool"
						}
					],
					"stateMutability": "nonpayable",
					"type": "function"
				},
				{
					"inputs": [
						{
							"internalType": "address",
							"name": "tokenOwner",
							"type": "address"
						}
					],
					"name": "balanceOf",
					"outputs": [
						{
							"internalType": "uint256",
							"name": "",
							"type": "uint256"
						}
					],
					"stateMutability": "view",
					"type": "function"
				},
				{
					"inputs": [
						{
							"internalType": "address",
							"name": "receiver",
							"type": "address"
						}
					],
					"name": "buyToken",
					"outputs": [
						{
							"internalType": "bool",
							"name": "",
							"type": "bool"
						}
					],
					"stateMutability": "payable",
					"type": "function"
				},
				{
					"inputs": [],
					"name": "decimals",
					"outputs": [
						{
							"internalType": "uint8",
							"name": "",
							"type": "uint8"
						}
					],
					"stateMutability": "view",
					"type": "function"
				},
				{
					"inputs": [],
					"name": "name",
					"outputs": [
						{
							"internalType": "string",
							"name": "",
							"type": "string"
						}
					],
					"stateMutability": "view",
					"type": "function"
				},
				{
					"inputs": [],
					"name": "oneBTK",
					"outputs": [
						{
							"internalType": "uint256",
							"name": "",
							"type": "uint256"
						}
					],
					"stateMutability": "view",
					"type": "function"
				},
				{
					"inputs": [],
					"name": "symbol",
					"outputs": [
						{
							"internalType": "string",
							"name": "",
							"type": "string"
						}
					],
					"stateMutability": "view",
					"type": "function"
				},
				{
					"inputs": [],
					"name": "totalSupply",
					"outputs": [
						{
							"internalType": "uint256",
							"name": "",
							"type": "uint256"
						}
					],
					"stateMutability": "view",
					"type": "function"
				},
				{
					"inputs": [
						{
							"internalType": "address",
							"name": "receiver",
							"type": "address"
						},
						{
							"internalType": "uint256",
							"name": "numTokens",
							"type": "uint256"
						}
					],
					"name": "transfer",
					"outputs": [
						{
							"internalType": "bool",
							"name": "",
							"type": "bool"
						}
					],
					"stateMutability": "nonpayable",
					"type": "function"
				},
				{
					"inputs": [
						{
							"internalType": "address",
							"name": "owner",
							"type": "address"
						},
						{
							"internalType": "address",
							"name": "buyer",
							"type": "address"
						},
						{
							"internalType": "uint256",
							"name": "numTokens",
							"type": "uint256"
						}
					],
					"name": "transferFrom",
					"outputs": [
						{
							"internalType": "bool",
							"name": "",
							"type": "bool"
						}
					],
					"stateMutability": "nonpayable",
					"type": "function"
				}
			],
			"devdoc": {
				"kind": "dev",
				"methods": {},
				"version": 1
			},
			"evm": {
				"assembly": "    /* \"contracts/ERC20.sol\":814:3200  contract BlockToken is IERC20 {\r... */\n  mstore(0x40, 0x80)\n    /* \"contracts/ERC20.sol\":1045:1049  1000 */\n  0x03e8\n    /* \"contracts/ERC20.sol\":1021:1049  uint256 public oneBTK = 1000 */\n  0x00\n  sstore\n    /* \"contracts/ERC20.sol\":1243:1250  1000000 */\n  0x0f4240\n    /* \"contracts/ERC20.sol\":1228:1240  totalSupply_ */\n  0x03\n    /* \"contracts/ERC20.sol\":1228:1250  totalSupply_ = 1000000 */\n  dup2\n  swap1\n  sstore\n  pop\n    /* \"contracts/ERC20.sol\":1284:1296  totalSupply_ */\n  sload(0x03)\n    /* \"contracts/ERC20.sol\":1261:1269  balances */\n  0x01\n    /* \"contracts/ERC20.sol\":1261:1281  balances[msg.sender] */\n  0x00\n    /* \"contracts/ERC20.sol\":1270:1280  msg.sender */\n  caller\n    /* \"contracts/ERC20.sol\":1261:1281  balances[msg.sender] */\n  0xffffffffffffffffffffffffffffffffffffffff\n  and\n  0xffffffffffffffffffffffffffffffffffffffff\n  and\n  dup2\n  mstore\n  0x20\n  add\n  swap1\n  dup2\n  mstore\n  0x20\n  add\n  0x00\n  keccak256\n    /* \"contracts/ERC20.sol\":1261:1296  balances[msg.sender] = totalSupply_ */\n  dup2\n  swap1\n  sstore\n  pop\n    /* \"contracts/ERC20.sol\":814:3200  contract BlockToken is IERC20 {\r... */\n  dataSize(sub_0)\n  dup1\n  dataOffset(sub_0)\n  0x00\n  codecopy\n  0x00\n  return\nstop\n\nsub_0: assembly {\n        /* \"contracts/ERC20.sol\":814:3200  contract BlockToken is IERC20 {\r... */\n      mstore(0x40, 0x80)\n      jumpi(tag_1, lt(calldatasize, 0x04))\n      shr(0xe0, calldataload(0x00))\n      dup1\n      0x70a08231\n      gt\n      tag_13\n      jumpi\n      dup1\n      0x70a08231\n      eq\n      tag_7\n      jumpi\n      dup1\n      0x758f38d7\n      eq\n      tag_8\n      jumpi\n      dup1\n      0x7e72fb52\n      eq\n      tag_9\n      jumpi\n      dup1\n      0x95d89b41\n      eq\n      tag_10\n      jumpi\n      dup1\n      0xa9059cbb\n      eq\n      tag_11\n      jumpi\n      dup1\n      0xdd62ed3e\n      eq\n      tag_12\n      jumpi\n      jump(tag_1)\n    tag_13:\n      dup1\n      0x06fdde03\n      eq\n      tag_2\n      jumpi\n      dup1\n      0x095ea7b3\n      eq\n      tag_3\n      jumpi\n      dup1\n      0x18160ddd\n      eq\n      tag_4\n      jumpi\n      dup1\n      0x23b872dd\n      eq\n      tag_5\n      jumpi\n      dup1\n      0x313ce567\n      eq\n      tag_6\n      jumpi\n    tag_1:\n      0x00\n      dup1\n      revert\n        /* \"contracts/ERC20.sol\":886:928  string public constant name = \"BlockToken\" */\n    tag_2:\n      callvalue\n      dup1\n      iszero\n      tag_14\n      jumpi\n      0x00\n      dup1\n      revert\n    tag_14:\n      pop\n      tag_15\n      tag_16\n      jump\t// in\n    tag_15:\n      mload(0x40)\n      tag_17\n      swap2\n      swap1\n      tag_18\n      jump\t// in\n    tag_17:\n      mload(0x40)\n      dup1\n      swap2\n      sub\n      swap1\n      return\n        /* \"contracts/ERC20.sol\":2330:2554  function approve(address delegate, uint256 numTokens) public override returns (bool) {\r... */\n    tag_3:\n      callvalue\n      dup1\n      iszero\n      tag_19\n      jumpi\n      0x00\n      dup1\n      revert\n    tag_19:\n      pop\n      tag_20\n      0x04\n      dup1\n      calldatasize\n      sub\n      dup2\n      add\n      swap1\n      tag_21\n      swap2\n      swap1\n      tag_22\n      jump\t// in\n    tag_21:\n      tag_23\n      jump\t// in\n    tag_20:\n      mload(0x40)\n      tag_24\n      swap2\n      swap1\n      tag_25\n      jump\t// in\n    tag_24:\n      mload(0x40)\n      dup1\n      swap2\n      sub\n      swap1\n      return\n        /* \"contracts/ERC20.sol\":2090:2190  function totalSupply() public override view returns (uint256) {\r... */\n    tag_4:\n      callvalue\n      dup1\n      iszero\n      tag_26\n      jumpi\n      0x00\n      dup1\n      revert\n    tag_26:\n      pop\n      tag_27\n      tag_28\n      jump\t// in\n    tag_27:\n      mload(0x40)\n      tag_29\n      swap2\n      swap1\n      tag_30\n      jump\t// in\n    tag_29:\n      mload(0x40)\n      dup1\n      swap2\n      sub\n      swap1\n      return\n        /* \"contracts/ERC20.sol\":2708:3197  function transferFrom(address owner, address buyer, uint256 numTokens) public override returns (bool) {\r... */\n    tag_5:\n      callvalue\n      dup1\n      iszero\n      tag_31\n      jumpi\n      0x00\n      dup1\n      revert\n    tag_31:\n      pop\n      tag_32\n      0x04\n      dup1\n      calldatasize\n      sub\n      dup2\n      add\n      swap1\n      tag_33\n      swap2\n      swap1\n      tag_34\n      jump\t// in\n    tag_33:\n      tag_35\n      jump\t// in\n    tag_32:\n      mload(0x40)\n      tag_36\n      swap2\n      swap1\n      tag_25\n      jump\t// in\n    tag_36:\n      mload(0x40)\n      dup1\n      swap2\n      sub\n      swap1\n      return\n        /* \"contracts/ERC20.sol\":979:1014  uint8 public constant decimals = 18 */\n    tag_6:\n      callvalue\n      dup1\n      iszero\n      tag_37\n      jumpi\n      0x00\n      dup1\n      revert\n    tag_37:\n      pop\n      tag_38\n      tag_39\n      jump\t// in\n    tag_38:\n      mload(0x40)\n      tag_40\n      swap2\n      swap1\n      tag_41\n      jump\t// in\n    tag_40:\n      mload(0x40)\n      dup1\n      swap2\n      sub\n      swap1\n      return\n        /* \"contracts/ERC20.sol\":2198:2322  function balanceOf(address tokenOwner) public override view returns (uint256) {\r... */\n    tag_7:\n      callvalue\n      dup1\n      iszero\n      tag_42\n      jumpi\n      0x00\n      dup1\n      revert\n    tag_42:\n      pop\n      tag_43\n      0x04\n      dup1\n      calldatasize\n      sub\n      dup2\n      add\n      swap1\n      tag_44\n      swap2\n      swap1\n      tag_45\n      jump\t// in\n    tag_44:\n      tag_46\n      jump\t// in\n    tag_43:\n      mload(0x40)\n      tag_47\n      swap2\n      swap1\n      tag_30\n      jump\t// in\n    tag_47:\n      mload(0x40)\n      dup1\n      swap2\n      sub\n      swap1\n      return\n        /* \"contracts/ERC20.sol\":1021:1049  uint256 public oneBTK = 1000 */\n    tag_8:\n      callvalue\n      dup1\n      iszero\n      tag_48\n      jumpi\n      0x00\n      dup1\n      revert\n    tag_48:\n      pop\n      tag_49\n      tag_50\n      jump\t// in\n    tag_49:\n      mload(0x40)\n      tag_51\n      swap2\n      swap1\n      tag_30\n      jump\t// in\n    tag_51:\n      mload(0x40)\n      dup1\n      swap2\n      sub\n      swap1\n      return\n        /* \"contracts/ERC20.sol\":1680:2082  function buyToken(address receiver) public payable returns (bool){\r... */\n    tag_9:\n      tag_52\n      0x04\n      dup1\n      calldatasize\n      sub\n      dup2\n      add\n      swap1\n      tag_53\n      swap2\n      swap1\n      tag_45\n      jump\t// in\n    tag_53:\n      tag_54\n      jump\t// in\n    tag_52:\n      mload(0x40)\n      tag_55\n      swap2\n      swap1\n      tag_25\n      jump\t// in\n    tag_55:\n      mload(0x40)\n      dup1\n      swap2\n      sub\n      swap1\n      return\n        /* \"contracts/ERC20.sol\":935:972  string public constant symbol = \"BTK\" */\n    tag_10:\n      callvalue\n      dup1\n      iszero\n      tag_56\n      jumpi\n      0x00\n      dup1\n      revert\n    tag_56:\n      pop\n      tag_57\n      tag_58\n      jump\t// in\n    tag_57:\n      mload(0x40)\n      tag_59\n      swap2\n      swap1\n      tag_18\n      jump\t// in\n    tag_59:\n      mload(0x40)\n      dup1\n      swap2\n      sub\n      swap1\n      return\n        /* \"contracts/ERC20.sol\":1312:1672  function transfer(address receiver, uint256 numTokens) public override returns (bool) {\r... */\n    tag_11:\n      callvalue\n      dup1\n      iszero\n      tag_60\n      jumpi\n      0x00\n      dup1\n      revert\n    tag_60:\n      pop\n      tag_61\n      0x04\n      dup1\n      calldatasize\n      sub\n      dup2\n      add\n      swap1\n      tag_62\n      swap2\n      swap1\n      tag_22\n      jump\t// in\n    tag_62:\n      tag_63\n      jump\t// in\n    tag_61:\n      mload(0x40)\n      tag_64\n      swap2\n      swap1\n      tag_25\n      jump\t// in\n    tag_64:\n      mload(0x40)\n      dup1\n      swap2\n      sub\n      swap1\n      return\n        /* \"contracts/ERC20.sol\":2562:2700  function allowance(address owner, address delegate) public override view returns (uint) {\r... */\n    tag_12:\n      callvalue\n      dup1\n      iszero\n      tag_65\n      jumpi\n      0x00\n      dup1\n      revert\n    tag_65:\n      pop\n      tag_66\n      0x04\n      dup1\n      calldatasize\n      sub\n      dup2\n      add\n      swap1\n      tag_67\n      swap2\n      swap1\n      tag_68\n      jump\t// in\n    tag_67:\n      tag_69\n      jump\t// in\n    tag_66:\n      mload(0x40)\n      tag_70\n      swap2\n      swap1\n      tag_30\n      jump\t// in\n    tag_70:\n      mload(0x40)\n      dup1\n      swap2\n      sub\n      swap1\n      return\n        /* \"contracts/ERC20.sol\":886:928  string public constant name = \"BlockToken\" */\n    tag_16:\n      mload(0x40)\n      dup1\n      0x40\n      add\n      0x40\n      mstore\n      dup1\n      0x0a\n      dup2\n      mstore\n      0x20\n      add\n      0x426c6f636b546f6b656e00000000000000000000000000000000000000000000\n      dup2\n      mstore\n      pop\n      dup2\n      jump\t// out\n        /* \"contracts/ERC20.sol\":2330:2554  function approve(address delegate, uint256 numTokens) public override returns (bool) {\r... */\n    tag_23:\n        /* \"contracts/ERC20.sol\":2409:2413  bool */\n      0x00\n        /* \"contracts/ERC20.sol\":2458:2467  numTokens */\n      dup2\n        /* \"contracts/ERC20.sol\":2426:2433  allowed */\n      0x02\n        /* \"contracts/ERC20.sol\":2426:2445  allowed[msg.sender] */\n      0x00\n        /* \"contracts/ERC20.sol\":2434:2444  msg.sender */\n      caller\n        /* \"contracts/ERC20.sol\":2426:2445  allowed[msg.sender] */\n      0xffffffffffffffffffffffffffffffffffffffff\n      and\n      0xffffffffffffffffffffffffffffffffffffffff\n      and\n      dup2\n      mstore\n      0x20\n      add\n      swap1\n      dup2\n      mstore\n      0x20\n      add\n      0x00\n      keccak256\n        /* \"contracts/ERC20.sol\":2426:2455  allowed[msg.sender][delegate] */\n      0x00\n        /* \"contracts/ERC20.sol\":2446:2454  delegate */\n      dup6\n        /* \"contracts/ERC20.sol\":2426:2455  allowed[msg.sender][delegate] */\n      0xffffffffffffffffffffffffffffffffffffffff\n      and\n      0xffffffffffffffffffffffffffffffffffffffff\n      and\n      dup2\n      mstore\n      0x20\n      add\n      swap1\n      dup2\n      mstore\n      0x20\n      add\n      0x00\n      keccak256\n        /* \"contracts/ERC20.sol\":2426:2467  allowed[msg.sender][delegate] = numTokens */\n      dup2\n      swap1\n      sstore\n      pop\n        /* \"contracts/ERC20.sol\":2504:2512  delegate */\n      dup3\n        /* \"contracts/ERC20.sol\":2483:2524  Approval(msg.sender, delegate, numTokens) */\n      0xffffffffffffffffffffffffffffffffffffffff\n      and\n        /* \"contracts/ERC20.sol\":2492:2502  msg.sender */\n      caller\n        /* \"contracts/ERC20.sol\":2483:2524  Approval(msg.sender, delegate, numTokens) */\n      0xffffffffffffffffffffffffffffffffffffffff\n      and\n      0x8c5be1e5ebec7d5bd14f71427d1e84f3dd0314c0f7b2291e5b200ac8c7c3b925\n        /* \"contracts/ERC20.sol\":2514:2523  numTokens */\n      dup5\n        /* \"contracts/ERC20.sol\":2483:2524  Approval(msg.sender, delegate, numTokens) */\n      mload(0x40)\n      tag_72\n      swap2\n      swap1\n      tag_30\n      jump\t// in\n    tag_72:\n      mload(0x40)\n      dup1\n      swap2\n      sub\n      swap1\n      log3\n        /* \"contracts/ERC20.sol\":2542:2546  true */\n      0x01\n        /* \"contracts/ERC20.sol\":2535:2546  return true */\n      swap1\n      pop\n        /* \"contracts/ERC20.sol\":2330:2554  function approve(address delegate, uint256 numTokens) public override returns (bool) {\r... */\n      swap3\n      swap2\n      pop\n      pop\n      jump\t// out\n        /* \"contracts/ERC20.sol\":2090:2190  function totalSupply() public override view returns (uint256) {\r... */\n    tag_28:\n        /* \"contracts/ERC20.sol\":2143:2150  uint256 */\n      0x00\n        /* \"contracts/ERC20.sol\":2170:2182  totalSupply_ */\n      sload(0x03)\n        /* \"contracts/ERC20.sol\":2163:2182  return totalSupply_ */\n      swap1\n      pop\n        /* \"contracts/ERC20.sol\":2090:2190  function totalSupply() public override view returns (uint256) {\r... */\n      swap1\n      jump\t// out\n        /* \"contracts/ERC20.sol\":2708:3197  function transferFrom(address owner, address buyer, uint256 numTokens) public override returns (bool) {\r... */\n    tag_35:\n        /* \"contracts/ERC20.sol\":2804:2808  bool */\n      0x00\n        /* \"contracts/ERC20.sol\":2842:2850  balances */\n      0x01\n        /* \"contracts/ERC20.sol\":2842:2857  balances[owner] */\n      0x00\n        /* \"contracts/ERC20.sol\":2851:2856  owner */\n      dup6\n        /* \"contracts/ERC20.sol\":2842:2857  balances[owner] */\n      0xffffffffffffffffffffffffffffffffffffffff\n      and\n      0xffffffffffffffffffffffffffffffffffffffff\n      and\n      dup2\n      mstore\n      0x20\n      add\n      swap1\n      dup2\n      mstore\n      0x20\n      add\n      0x00\n      keccak256\n      sload\n        /* \"contracts/ERC20.sol\":2829:2838  numTokens */\n      dup3\n        /* \"contracts/ERC20.sol\":2829:2857  numTokens <= balances[owner] */\n      gt\n      iszero\n        /* \"contracts/ERC20.sol\":2821:2858  require(numTokens <= balances[owner]) */\n      tag_75\n      jumpi\n      0x00\n      dup1\n      revert\n    tag_75:\n        /* \"contracts/ERC20.sol\":2890:2897  allowed */\n      0x02\n        /* \"contracts/ERC20.sol\":2890:2904  allowed[owner] */\n      0x00\n        /* \"contracts/ERC20.sol\":2898:2903  owner */\n      dup6\n        /* \"contracts/ERC20.sol\":2890:2904  allowed[owner] */\n      0xffffffffffffffffffffffffffffffffffffffff\n      and\n      0xffffffffffffffffffffffffffffffffffffffff\n      and\n      dup2\n      mstore\n      0x20\n      add\n      swap1\n      dup2\n      mstore\n      0x20\n      add\n      0x00\n      keccak256\n        /* \"contracts/ERC20.sol\":2890:2916  allowed[owner][msg.sender] */\n      0x00\n        /* \"contracts/ERC20.sol\":2905:2915  msg.sender */\n      caller\n        /* \"contracts/ERC20.sol\":2890:2916  allowed[owner][msg.sender] */\n      0xffffffffffffffffffffffffffffffffffffffff\n      and\n      0xffffffffffffffffffffffffffffffffffffffff\n      and\n      dup2\n      mstore\n      0x20\n      add\n      swap1\n      dup2\n      mstore\n      0x20\n      add\n      0x00\n      keccak256\n      sload\n        /* \"contracts/ERC20.sol\":2877:2886  numTokens */\n      dup3\n        /* \"contracts/ERC20.sol\":2877:2916  numTokens <= allowed[owner][msg.sender] */\n      gt\n      iszero\n        /* \"contracts/ERC20.sol\":2869:2917  require(numTokens <= allowed[owner][msg.sender]) */\n      tag_76\n      jumpi\n      0x00\n      dup1\n      revert\n    tag_76:\n        /* \"contracts/ERC20.sol\":2948:2978  balances[owner].sub(numTokens) */\n      tag_77\n        /* \"contracts/ERC20.sol\":2968:2977  numTokens */\n      dup3\n        /* \"contracts/ERC20.sol\":2948:2956  balances */\n      0x01\n        /* \"contracts/ERC20.sol\":2948:2963  balances[owner] */\n      0x00\n        /* \"contracts/ERC20.sol\":2957:2962  owner */\n      dup8\n        /* \"contracts/ERC20.sol\":2948:2963  balances[owner] */\n      0xffffffffffffffffffffffffffffffffffffffff\n      and\n      0xffffffffffffffffffffffffffffffffffffffff\n      and\n      dup2\n      mstore\n      0x20\n      add\n      swap1\n      dup2\n      mstore\n      0x20\n      add\n      0x00\n      keccak256\n      sload\n        /* \"contracts/ERC20.sol\":2948:2967  balances[owner].sub */\n      tag_78\n      swap1\n        /* \"contracts/ERC20.sol\":2948:2978  balances[owner].sub(numTokens) */\n      swap2\n      swap1\n      0xffffffff\n      and\n      jump\t// in\n    tag_77:\n        /* \"contracts/ERC20.sol\":2930:2938  balances */\n      0x01\n        /* \"contracts/ERC20.sol\":2930:2945  balances[owner] */\n      0x00\n        /* \"contracts/ERC20.sol\":2939:2944  owner */\n      dup7\n        /* \"contracts/ERC20.sol\":2930:2945  balances[owner] */\n      0xffffffffffffffffffffffffffffffffffffffff\n      and\n      0xffffffffffffffffffffffffffffffffffffffff\n      and\n      dup2\n      mstore\n      0x20\n      add\n      swap1\n      dup2\n      mstore\n      0x20\n      add\n      0x00\n      keccak256\n        /* \"contracts/ERC20.sol\":2930:2978  balances[owner] = balances[owner].sub(numTokens) */\n      dup2\n      swap1\n      sstore\n      pop\n        /* \"contracts/ERC20.sol\":3018:3059  allowed[owner][msg.sender].sub(numTokens) */\n      tag_79\n        /* \"contracts/ERC20.sol\":3049:3058  numTokens */\n      dup3\n        /* \"contracts/ERC20.sol\":3018:3025  allowed */\n      0x02\n        /* \"contracts/ERC20.sol\":3018:3032  allowed[owner] */\n      0x00\n        /* \"contracts/ERC20.sol\":3026:3031  owner */\n      dup8\n        /* \"contracts/ERC20.sol\":3018:3032  allowed[owner] */\n      0xffffffffffffffffffffffffffffffffffffffff\n      and\n      0xffffffffffffffffffffffffffffffffffffffff\n      and\n      dup2\n      mstore\n      0x20\n      add\n      swap1\n      dup2\n      mstore\n      0x20\n      add\n      0x00\n      keccak256\n        /* \"contracts/ERC20.sol\":3018:3044  allowed[owner][msg.sender] */\n      0x00\n        /* \"contracts/ERC20.sol\":3033:3043  msg.sender */\n      caller\n        /* \"contracts/ERC20.sol\":3018:3044  allowed[owner][msg.sender] */\n      0xffffffffffffffffffffffffffffffffffffffff\n      and\n      0xffffffffffffffffffffffffffffffffffffffff\n      and\n      dup2\n      mstore\n      0x20\n      add\n      swap1\n      dup2\n      mstore\n      0x20\n      add\n      0x00\n      keccak256\n      sload\n        /* \"contracts/ERC20.sol\":3018:3048  allowed[owner][msg.sender].sub */\n      tag_78\n      swap1\n        /* \"contracts/ERC20.sol\":3018:3059  allowed[owner][msg.sender].sub(numTokens) */\n      swap2\n      swap1\n      0xffffffff\n      and\n      jump\t// in\n    tag_79:\n        /* \"contracts/ERC20.sol\":2989:2996  allowed */\n      0x02\n        /* \"contracts/ERC20.sol\":2989:3003  allowed[owner] */\n      0x00\n        /* \"contracts/ERC20.sol\":2997:3002  owner */\n      dup7\n        /* \"contracts/ERC20.sol\":2989:3003  allowed[owner] */\n      0xffffffffffffffffffffffffffffffffffffffff\n      and\n      0xffffffffffffffffffffffffffffffffffffffff\n      and\n      dup2\n      mstore\n      0x20\n      add\n      swap1\n      dup2\n      mstore\n      0x20\n      add\n      0x00\n      keccak256\n        /* \"contracts/ERC20.sol\":2989:3015  allowed[owner][msg.sender] */\n      0x00\n        /* \"contracts/ERC20.sol\":3004:3014  msg.sender */\n      caller\n        /* \"contracts/ERC20.sol\":2989:3015  allowed[owner][msg.sender] */\n      0xffffffffffffffffffffffffffffffffffffffff\n      and\n      0xffffffffffffffffffffffffffffffffffffffff\n      and\n      dup2\n      mstore\n      0x20\n      add\n      swap1\n      dup2\n      mstore\n      0x20\n      add\n      0x00\n      keccak256\n        /* \"contracts/ERC20.sol\":2989:3059  allowed[owner][msg.sender] = allowed[owner][msg.sender].sub(numTokens) */\n      dup2\n      swap1\n      sstore\n      pop\n        /* \"contracts/ERC20.sol\":3088:3118  balances[buyer].add(numTokens) */\n      tag_80\n        /* \"contracts/ERC20.sol\":3108:3117  numTokens */\n      dup3\n        /* \"contracts/ERC20.sol\":3088:3096  balances */\n      0x01\n        /* \"contracts/ERC20.sol\":3088:3103  balances[buyer] */\n      0x00\n        /* \"contracts/ERC20.sol\":3097:3102  buyer */\n      dup7\n        /* \"contracts/ERC20.sol\":3088:3103  balances[buyer] */\n      0xffffffffffffffffffffffffffffffffffffffff\n      and\n      0xffffffffffffffffffffffffffffffffffffffff\n      and\n      dup2\n      mstore\n      0x20\n      add\n      swap1\n      dup2\n      mstore\n      0x20\n      add\n      0x00\n      keccak256\n      sload\n        /* \"contracts/ERC20.sol\":3088:3107  balances[buyer].add */\n      tag_81\n      swap1\n        /* \"contracts/ERC20.sol\":3088:3118  balances[buyer].add(numTokens) */\n      swap2\n      swap1\n      0xffffffff\n      and\n      jump\t// in\n    tag_80:\n        /* \"contracts/ERC20.sol\":3070:3078  balances */\n      0x01\n        /* \"contracts/ERC20.sol\":3070:3085  balances[buyer] */\n      0x00\n        /* \"contracts/ERC20.sol\":3079:3084  buyer */\n      dup6\n        /* \"contracts/ERC20.sol\":3070:3085  balances[buyer] */\n      0xffffffffffffffffffffffffffffffffffffffff\n      and\n      0xffffffffffffffffffffffffffffffffffffffff\n      and\n      dup2\n      mstore\n      0x20\n      add\n      swap1\n      dup2\n      mstore\n      0x20\n      add\n      0x00\n      keccak256\n        /* \"contracts/ERC20.sol\":3070:3118  balances[buyer] = balances[buyer].add(numTokens) */\n      dup2\n      swap1\n      sstore\n      pop\n        /* \"contracts/ERC20.sol\":3150:3155  buyer */\n      dup3\n        /* \"contracts/ERC20.sol\":3134:3167  Transfer(owner, buyer, numTokens) */\n      0xffffffffffffffffffffffffffffffffffffffff\n      and\n        /* \"contracts/ERC20.sol\":3143:3148  owner */\n      dup5\n        /* \"contracts/ERC20.sol\":3134:3167  Transfer(owner, buyer, numTokens) */\n      0xffffffffffffffffffffffffffffffffffffffff\n      and\n      0xddf252ad1be2c89b69c2b068fc378daa952ba7f163c4a11628f55a4df523b3ef\n        /* \"contracts/ERC20.sol\":3157:3166  numTokens */\n      dup5\n        /* \"contracts/ERC20.sol\":3134:3167  Transfer(owner, buyer, numTokens) */\n      mload(0x40)\n      tag_82\n      swap2\n      swap1\n      tag_30\n      jump\t// in\n    tag_82:\n      mload(0x40)\n      dup1\n      swap2\n      sub\n      swap1\n      log3\n        /* \"contracts/ERC20.sol\":3185:3189  true */\n      0x01\n        /* \"contracts/ERC20.sol\":3178:3189  return true */\n      swap1\n      pop\n        /* \"contracts/ERC20.sol\":2708:3197  function transferFrom(address owner, address buyer, uint256 numTokens) public override returns (bool) {\r... */\n      swap4\n      swap3\n      pop\n      pop\n      pop\n      jump\t// out\n        /* \"contracts/ERC20.sol\":979:1014  uint8 public constant decimals = 18 */\n    tag_39:\n        /* \"contracts/ERC20.sol\":1012:1014  18 */\n      0x12\n        /* \"contracts/ERC20.sol\":979:1014  uint8 public constant decimals = 18 */\n      dup2\n      jump\t// out\n        /* \"contracts/ERC20.sol\":2198:2322  function balanceOf(address tokenOwner) public override view returns (uint256) {\r... */\n    tag_46:\n        /* \"contracts/ERC20.sol\":2267:2274  uint256 */\n      0x00\n        /* \"contracts/ERC20.sol\":2294:2302  balances */\n      0x01\n        /* \"contracts/ERC20.sol\":2294:2314  balances[tokenOwner] */\n      0x00\n        /* \"contracts/ERC20.sol\":2303:2313  tokenOwner */\n      dup4\n        /* \"contracts/ERC20.sol\":2294:2314  balances[tokenOwner] */\n      0xffffffffffffffffffffffffffffffffffffffff\n      and\n      0xffffffffffffffffffffffffffffffffffffffff\n      and\n      dup2\n      mstore\n      0x20\n      add\n      swap1\n      dup2\n      mstore\n      0x20\n      add\n      0x00\n      keccak256\n      sload\n        /* \"contracts/ERC20.sol\":2287:2314  return balances[tokenOwner] */\n      swap1\n      pop\n        /* \"contracts/ERC20.sol\":2198:2322  function balanceOf(address tokenOwner) public override view returns (uint256) {\r... */\n      swap2\n      swap1\n      pop\n      jump\t// out\n        /* \"contracts/ERC20.sol\":1021:1049  uint256 public oneBTK = 1000 */\n    tag_50:\n      sload(0x00)\n      dup2\n      jump\t// out\n        /* \"contracts/ERC20.sol\":1680:2082  function buyToken(address receiver) public payable returns (bool){\r... */\n    tag_54:\n        /* \"contracts/ERC20.sol\":1740:1744  bool */\n      0x00\n        /* \"contracts/ERC20.sol\":1777:1778  0 */\n      dup1\n        /* \"contracts/ERC20.sol\":1764:1773  msg.value */\n      callvalue\n        /* \"contracts/ERC20.sol\":1764:1778  msg.value >= 0 */\n      lt\n      iszero\n        /* \"contracts/ERC20.sol\":1756:1816  require(msg.value >= 0, \"You cannot mint BTK with zero ETH\") */\n      tag_85\n      jumpi\n      mload(0x40)\n      0x08c379a000000000000000000000000000000000000000000000000000000000\n      dup2\n      mstore\n      0x04\n      add\n      tag_86\n      swap1\n      tag_87\n      jump\t// in\n    tag_86:\n      mload(0x40)\n      dup1\n      swap2\n      sub\n      swap1\n      revert\n    tag_85:\n        /* \"contracts/ERC20.sol\":1827:1841  uint numTokens */\n      0x00\n        /* \"contracts/ERC20.sol\":1879:1885  oneBTK */\n      dup1\n      sload\n        /* \"contracts/ERC20.sol\":1012:1014  18 */\n      0x12\n        /* \"contracts/ERC20.sol\":1861:1863  10 */\n      0x0a\n        /* \"contracts/ERC20.sol\":1861:1875  10 ** decimals */\n      tag_88\n      swap2\n      swap1\n      tag_89\n      jump\t// in\n    tag_88:\n        /* \"contracts/ERC20.sol\":1857:1858  1 */\n      0x01\n        /* \"contracts/ERC20.sol\":1857:1875  1 * 10 ** decimals */\n      tag_90\n      swap2\n      swap1\n      tag_91\n      jump\t// in\n    tag_90:\n        /* \"contracts/ERC20.sol\":1844:1853  msg.value */\n      callvalue\n        /* \"contracts/ERC20.sol\":1844:1876  msg.value / (1 * 10 ** decimals) */\n      tag_92\n      swap2\n      swap1\n      tag_93\n      jump\t// in\n    tag_92:\n        /* \"contracts/ERC20.sol\":1844:1885  msg.value / (1 * 10 ** decimals) * oneBTK */\n      tag_94\n      swap2\n      swap1\n      tag_91\n      jump\t// in\n    tag_94:\n        /* \"contracts/ERC20.sol\":1827:1885  uint numTokens = msg.value / (1 * 10 ** decimals) * oneBTK */\n      swap1\n      pop\n        /* \"contracts/ERC20.sol\":1896:1924  transfer(receiver,numTokens) */\n      tag_95\n        /* \"contracts/ERC20.sol\":1905:1913  receiver */\n      dup4\n        /* \"contracts/ERC20.sol\":1914:1923  numTokens */\n      dup3\n        /* \"contracts/ERC20.sol\":1896:1904  transfer */\n      tag_63\n        /* \"contracts/ERC20.sol\":1896:1924  transfer(receiver,numTokens) */\n      jump\t// in\n    tag_95:\n      pop\n        /* \"contracts/ERC20.sol\":1957:1966  numTokens */\n      dup1\n        /* \"contracts/ERC20.sol\":1935:1943  balances */\n      0x01\n        /* \"contracts/ERC20.sol\":1935:1953  balances[receiver] */\n      0x00\n        /* \"contracts/ERC20.sol\":1944:1952  receiver */\n      dup6\n        /* \"contracts/ERC20.sol\":1935:1953  balances[receiver] */\n      0xffffffffffffffffffffffffffffffffffffffff\n      and\n      0xffffffffffffffffffffffffffffffffffffffff\n      and\n      dup2\n      mstore\n      0x20\n      add\n      swap1\n      dup2\n      mstore\n      0x20\n      add\n      0x00\n      keccak256\n      0x00\n        /* \"contracts/ERC20.sol\":1935:1966  balances[receiver] += numTokens */\n      dup3\n      dup3\n      sload\n      tag_96\n      swap2\n      swap1\n      tag_97\n      jump\t// in\n    tag_96:\n      swap3\n      pop\n      pop\n      dup2\n      swap1\n      sstore\n      pop\n        /* \"contracts/ERC20.sol\":1993:2002  numTokens */\n      dup1\n        /* \"contracts/ERC20.sol\":1977:1989  totalSupply_ */\n      0x03\n      0x00\n        /* \"contracts/ERC20.sol\":1977:2002  totalSupply_ += numTokens */\n      dup3\n      dup3\n      sload\n      tag_98\n      swap2\n      swap1\n      tag_97\n      jump\t// in\n    tag_98:\n      swap3\n      pop\n      pop\n      dup2\n      swap1\n      sstore\n      pop\n        /* \"contracts/ERC20.sol\":2032:2040  receiver */\n      dup3\n        /* \"contracts/ERC20.sol\":2020:2052  BoughtToken(receiver, msg.value) */\n      0xffffffffffffffffffffffffffffffffffffffff\n      and\n      0x75424253909c2f4460f8a59099700e980f5b484608c4fdd79f600f5162ac88a5\n        /* \"contracts/ERC20.sol\":2042:2051  msg.value */\n      callvalue\n        /* \"contracts/ERC20.sol\":2020:2052  BoughtToken(receiver, msg.value) */\n      mload(0x40)\n      tag_99\n      swap2\n      swap1\n      tag_30\n      jump\t// in\n    tag_99:\n      mload(0x40)\n      dup1\n      swap2\n      sub\n      swap1\n      log2\n        /* \"contracts/ERC20.sol\":2070:2074  true */\n      0x01\n        /* \"contracts/ERC20.sol\":2063:2074  return true */\n      swap2\n      pop\n      pop\n        /* \"contracts/ERC20.sol\":1680:2082  function buyToken(address receiver) public payable returns (bool){\r... */\n      swap2\n      swap1\n      pop\n      jump\t// out\n        /* \"contracts/ERC20.sol\":935:972  string public constant symbol = \"BTK\" */\n    tag_58:\n      mload(0x40)\n      dup1\n      0x40\n      add\n      0x40\n      mstore\n      dup1\n      0x03\n      dup2\n      mstore\n      0x20\n      add\n      0x42544b0000000000000000000000000000000000000000000000000000000000\n      dup2\n      mstore\n      pop\n      dup2\n      jump\t// out\n        /* \"contracts/ERC20.sol\":1312:1672  function transfer(address receiver, uint256 numTokens) public override returns (bool) {\r... */\n    tag_63:\n        /* \"contracts/ERC20.sol\":1392:1396  bool */\n      0x00\n        /* \"contracts/ERC20.sol\":1430:1438  balances */\n      0x01\n        /* \"contracts/ERC20.sol\":1430:1450  balances[msg.sender] */\n      0x00\n        /* \"contracts/ERC20.sol\":1439:1449  msg.sender */\n      caller\n        /* \"contracts/ERC20.sol\":1430:1450  balances[msg.sender] */\n      0xffffffffffffffffffffffffffffffffffffffff\n      and\n      0xffffffffffffffffffffffffffffffffffffffff\n      and\n      dup2\n      mstore\n      0x20\n      add\n      swap1\n      dup2\n      mstore\n      0x20\n      add\n      0x00\n      keccak256\n      sload\n        /* \"contracts/ERC20.sol\":1417:1426  numTokens */\n      dup3\n        /* \"contracts/ERC20.sol\":1417:1450  numTokens <= balances[msg.sender] */\n      gt\n      iszero\n        /* \"contracts/ERC20.sol\":1409:1451  require(numTokens <= balances[msg.sender]) */\n      tag_101\n      jumpi\n      0x00\n      dup1\n      revert\n    tag_101:\n        /* \"contracts/ERC20.sol\":1485:1520  balances[msg.sender].sub(numTokens) */\n      tag_102\n        /* \"contracts/ERC20.sol\":1510:1519  numTokens */\n      dup3\n        /* \"contracts/ERC20.sol\":1485:1493  balances */\n      0x01\n        /* \"contracts/ERC20.sol\":1485:1505  balances[msg.sender] */\n      0x00\n        /* \"contracts/ERC20.sol\":1494:1504  msg.sender */\n      caller\n        /* \"contracts/ERC20.sol\":1485:1505  balances[msg.sender] */\n      0xffffffffffffffffffffffffffffffffffffffff\n      and\n      0xffffffffffffffffffffffffffffffffffffffff\n      and\n      dup2\n      mstore\n      0x20\n      add\n      swap1\n      dup2\n      mstore\n      0x20\n      add\n      0x00\n      keccak256\n      sload\n        /* \"contracts/ERC20.sol\":1485:1509  balances[msg.sender].sub */\n      tag_78\n      swap1\n        /* \"contracts/ERC20.sol\":1485:1520  balances[msg.sender].sub(numTokens) */\n      swap2\n      swap1\n      0xffffffff\n      and\n      jump\t// in\n    tag_102:\n        /* \"contracts/ERC20.sol\":1462:1470  balances */\n      0x01\n        /* \"contracts/ERC20.sol\":1462:1482  balances[msg.sender] */\n      0x00\n        /* \"contracts/ERC20.sol\":1471:1481  msg.sender */\n      caller\n        /* \"contracts/ERC20.sol\":1462:1482  balances[msg.sender] */\n      0xffffffffffffffffffffffffffffffffffffffff\n      and\n      0xffffffffffffffffffffffffffffffffffffffff\n      and\n      dup2\n      mstore\n      0x20\n      add\n      swap1\n      dup2\n      mstore\n      0x20\n      add\n      0x00\n      keccak256\n        /* \"contracts/ERC20.sol\":1462:1520  balances[msg.sender] = balances[msg.sender].sub(numTokens) */\n      dup2\n      swap1\n      sstore\n      pop\n        /* \"contracts/ERC20.sol\":1552:1585  balances[receiver].add(numTokens) */\n      tag_103\n        /* \"contracts/ERC20.sol\":1575:1584  numTokens */\n      dup3\n        /* \"contracts/ERC20.sol\":1552:1560  balances */\n      0x01\n        /* \"contracts/ERC20.sol\":1552:1570  balances[receiver] */\n      0x00\n        /* \"contracts/ERC20.sol\":1561:1569  receiver */\n      dup7\n        /* \"contracts/ERC20.sol\":1552:1570  balances[receiver] */\n      0xffffffffffffffffffffffffffffffffffffffff\n      and\n      0xffffffffffffffffffffffffffffffffffffffff\n      and\n      dup2\n      mstore\n      0x20\n      add\n      swap1\n      dup2\n      mstore\n      0x20\n      add\n      0x00\n      keccak256\n      sload\n        /* \"contracts/ERC20.sol\":1552:1574  balances[receiver].add */\n      tag_81\n      swap1\n        /* \"contracts/ERC20.sol\":1552:1585  balances[receiver].add(numTokens) */\n      swap2\n      swap1\n      0xffffffff\n      and\n      jump\t// in\n    tag_103:\n        /* \"contracts/ERC20.sol\":1531:1539  balances */\n      0x01\n        /* \"contracts/ERC20.sol\":1531:1549  balances[receiver] */\n      0x00\n        /* \"contracts/ERC20.sol\":1540:1548  receiver */\n      dup6\n        /* \"contracts/ERC20.sol\":1531:1549  balances[receiver] */\n      0xffffffffffffffffffffffffffffffffffffffff\n      and\n      0xffffffffffffffffffffffffffffffffffffffff\n      and\n      dup2\n      mstore\n      0x20\n      add\n      swap1\n      dup2\n      mstore\n      0x20\n      add\n      0x00\n      keccak256\n        /* \"contracts/ERC20.sol\":1531:1585  balances[receiver] = balances[receiver].add(numTokens) */\n      dup2\n      swap1\n      sstore\n      pop\n        /* \"contracts/ERC20.sol\":1622:1630  receiver */\n      dup3\n        /* \"contracts/ERC20.sol\":1601:1642  Transfer(msg.sender, receiver, numTokens) */\n      0xffffffffffffffffffffffffffffffffffffffff\n      and\n        /* \"contracts/ERC20.sol\":1610:1620  msg.sender */\n      caller\n        /* \"contracts/ERC20.sol\":1601:1642  Transfer(msg.sender, receiver, numTokens) */\n      0xffffffffffffffffffffffffffffffffffffffff\n      and\n      0xddf252ad1be2c89b69c2b068fc378daa952ba7f163c4a11628f55a4df523b3ef\n        /* \"contracts/ERC20.sol\":1632:1641  numTokens */\n      dup5\n        /* \"contracts/ERC20.sol\":1601:1642  Transfer(msg.sender, receiver, numTokens) */\n      mload(0x40)\n      tag_104\n      swap2\n      swap1\n      tag_30\n      jump\t// in\n    tag_104:\n      mload(0x40)\n      dup1\n      swap2\n      sub\n      swap1\n      log3\n        /* \"contracts/ERC20.sol\":1660:1664  true */\n      0x01\n        /* \"contracts/ERC20.sol\":1653:1664  return true */\n      swap1\n      pop\n        /* \"contracts/ERC20.sol\":1312:1672  function transfer(address receiver, uint256 numTokens) public override returns (bool) {\r... */\n      swap3\n      swap2\n      pop\n      pop\n      jump\t// out\n        /* \"contracts/ERC20.sol\":2562:2700  function allowance(address owner, address delegate) public override view returns (uint) {\r... */\n    tag_69:\n        /* \"contracts/ERC20.sol\":2644:2648  uint */\n      0x00\n        /* \"contracts/ERC20.sol\":2668:2675  allowed */\n      0x02\n        /* \"contracts/ERC20.sol\":2668:2682  allowed[owner] */\n      0x00\n        /* \"contracts/ERC20.sol\":2676:2681  owner */\n      dup5\n        /* \"contracts/ERC20.sol\":2668:2682  allowed[owner] */\n      0xffffffffffffffffffffffffffffffffffffffff\n      and\n      0xffffffffffffffffffffffffffffffffffffffff\n      and\n      dup2\n      mstore\n      0x20\n      add\n      swap1\n      dup2\n      mstore\n      0x20\n      add\n      0x00\n      keccak256\n        /* \"contracts/ERC20.sol\":2668:2692  allowed[owner][delegate] */\n      0x00\n        /* \"contracts/ERC20.sol\":2683:2691  delegate */\n      dup4\n        /* \"contracts/ERC20.sol\":2668:2692  allowed[owner][delegate] */\n      0xffffffffffffffffffffffffffffffffffffffff\n      and\n      0xffffffffffffffffffffffffffffffffffffffff\n      and\n      dup2\n      mstore\n      0x20\n      add\n      swap1\n      dup2\n      mstore\n      0x20\n      add\n      0x00\n      keccak256\n      sload\n        /* \"contracts/ERC20.sol\":2661:2692  return allowed[owner][delegate] */\n      swap1\n      pop\n        /* \"contracts/ERC20.sol\":2562:2700  function allowance(address owner, address delegate) public override view returns (uint) {\r... */\n      swap3\n      swap2\n      pop\n      pop\n      jump\t// out\n        /* \"contracts/ERC20.sol\":3228:3347  function sub(uint256 a, uint256 b) internal pure returns (uint256) {\r... */\n    tag_78:\n        /* \"contracts/ERC20.sol\":3286:3293  uint256 */\n      0x00\n        /* \"contracts/ERC20.sol\":3316:3317  a */\n      dup3\n        /* \"contracts/ERC20.sol\":3311:3312  b */\n      dup3\n        /* \"contracts/ERC20.sol\":3311:3317  b <= a */\n      gt\n      iszero\n        /* \"contracts/ERC20.sol\":3304:3318  assert(b <= a) */\n      tag_107\n      jumpi\n      tag_108\n      tag_109\n      jump\t// in\n    tag_108:\n    tag_107:\n        /* \"contracts/ERC20.sol\":3338:3339  b */\n      dup2\n        /* \"contracts/ERC20.sol\":3334:3335  a */\n      dup4\n        /* \"contracts/ERC20.sol\":3334:3339  a - b */\n      tag_110\n      swap2\n      swap1\n      tag_111\n      jump\t// in\n    tag_110:\n        /* \"contracts/ERC20.sol\":3327:3339  return a - b */\n      swap1\n      pop\n        /* \"contracts/ERC20.sol\":3228:3347  function sub(uint256 a, uint256 b) internal pure returns (uint256) {\r... */\n      swap3\n      swap2\n      pop\n      pop\n      jump\t// out\n        /* \"contracts/ERC20.sol\":3355:3496  function add(uint256 a, uint256 b) internal pure returns (uint256) {\r... */\n    tag_81:\n        /* \"contracts/ERC20.sol\":3413:3420  uint256 */\n      0x00\n        /* \"contracts/ERC20.sol\":3431:3440  uint256 c */\n      dup1\n        /* \"contracts/ERC20.sol\":3447:3448  b */\n      dup3\n        /* \"contracts/ERC20.sol\":3443:3444  a */\n      dup5\n        /* \"contracts/ERC20.sol\":3443:3448  a + b */\n      tag_113\n      swap2\n      swap1\n      tag_97\n      jump\t// in\n    tag_113:\n        /* \"contracts/ERC20.sol\":3431:3448  uint256 c = a + b */\n      swap1\n      pop\n        /* \"contracts/ERC20.sol\":3469:3470  a */\n      dup4\n        /* \"contracts/ERC20.sol\":3464:3465  c */\n      dup2\n        /* \"contracts/ERC20.sol\":3464:3470  c >= a */\n      lt\n      iszero\n        /* \"contracts/ERC20.sol\":3457:3471  assert(c >= a) */\n      tag_114\n      jumpi\n      tag_115\n      tag_109\n      jump\t// in\n    tag_115:\n    tag_114:\n        /* \"contracts/ERC20.sol\":3487:3488  c */\n      dup1\n        /* \"contracts/ERC20.sol\":3480:3488  return c */\n      swap2\n      pop\n      pop\n        /* \"contracts/ERC20.sol\":3355:3496  function add(uint256 a, uint256 b) internal pure returns (uint256) {\r... */\n      swap3\n      swap2\n      pop\n      pop\n      jump\t// out\n        /* \"#utility.yul\":7:146   */\n    tag_117:\n        /* \"#utility.yul\":53:58   */\n      0x00\n        /* \"#utility.yul\":91:97   */\n      dup2\n        /* \"#utility.yul\":78:98   */\n      calldataload\n        /* \"#utility.yul\":69:98   */\n      swap1\n      pop\n        /* \"#utility.yul\":107:140   */\n      tag_119\n        /* \"#utility.yul\":134:139   */\n      dup2\n        /* \"#utility.yul\":107:140   */\n      tag_120\n      jump\t// in\n    tag_119:\n        /* \"#utility.yul\":7:146   */\n      swap3\n      swap2\n      pop\n      pop\n      jump\t// out\n        /* \"#utility.yul\":152:291   */\n    tag_121:\n        /* \"#utility.yul\":198:203   */\n      0x00\n        /* \"#utility.yul\":236:242   */\n      dup2\n        /* \"#utility.yul\":223:243   */\n      calldataload\n        /* \"#utility.yul\":214:243   */\n      swap1\n      pop\n        /* \"#utility.yul\":252:285   */\n      tag_123\n        /* \"#utility.yul\":279:284   */\n      dup2\n        /* \"#utility.yul\":252:285   */\n      tag_124\n      jump\t// in\n    tag_123:\n        /* \"#utility.yul\":152:291   */\n      swap3\n      swap2\n      pop\n      pop\n      jump\t// out\n        /* \"#utility.yul\":297:626   */\n    tag_45:\n        /* \"#utility.yul\":356:362   */\n      0x00\n        /* \"#utility.yul\":405:407   */\n      0x20\n        /* \"#utility.yul\":393:402   */\n      dup3\n        /* \"#utility.yul\":384:391   */\n      dup5\n        /* \"#utility.yul\":380:403   */\n      sub\n        /* \"#utility.yul\":376:408   */\n      slt\n        /* \"#utility.yul\":373:492   */\n      iszero\n      tag_126\n      jumpi\n        /* \"#utility.yul\":411:490   */\n      tag_127\n      tag_128\n      jump\t// in\n    tag_127:\n        /* \"#utility.yul\":373:492   */\n    tag_126:\n        /* \"#utility.yul\":531:532   */\n      0x00\n        /* \"#utility.yul\":556:609   */\n      tag_129\n        /* \"#utility.yul\":601:608   */\n      dup5\n        /* \"#utility.yul\":592:598   */\n      dup3\n        /* \"#utility.yul\":581:590   */\n      dup6\n        /* \"#utility.yul\":577:599   */\n      add\n        /* \"#utility.yul\":556:609   */\n      tag_117\n      jump\t// in\n    tag_129:\n        /* \"#utility.yul\":546:609   */\n      swap2\n      pop\n        /* \"#utility.yul\":502:619   */\n      pop\n        /* \"#utility.yul\":297:626   */\n      swap3\n      swap2\n      pop\n      pop\n      jump\t// out\n        /* \"#utility.yul\":632:1106   */\n    tag_68:\n        /* \"#utility.yul\":700:706   */\n      0x00\n        /* \"#utility.yul\":708:714   */\n      dup1\n        /* \"#utility.yul\":757:759   */\n      0x40\n        /* \"#utility.yul\":745:754   */\n      dup4\n        /* \"#utility.yul\":736:743   */\n      dup6\n        /* \"#utility.yul\":732:755   */\n      sub\n        /* \"#utility.yul\":728:760   */\n      slt\n        /* \"#utility.yul\":725:844   */\n      iszero\n      tag_131\n      jumpi\n        /* \"#utility.yul\":763:842   */\n      tag_132\n      tag_128\n      jump\t// in\n    tag_132:\n        /* \"#utility.yul\":725:844   */\n    tag_131:\n        /* \"#utility.yul\":883:884   */\n      0x00\n        /* \"#utility.yul\":908:961   */\n      tag_133\n        /* \"#utility.yul\":953:960   */\n      dup6\n        /* \"#utility.yul\":944:950   */\n      dup3\n        /* \"#utility.yul\":933:942   */\n      dup7\n        /* \"#utility.yul\":929:951   */\n      add\n        /* \"#utility.yul\":908:961   */\n      tag_117\n      jump\t// in\n    tag_133:\n        /* \"#utility.yul\":898:961   */\n      swap3\n      pop\n        /* \"#utility.yul\":854:971   */\n      pop\n        /* \"#utility.yul\":1010:1012   */\n      0x20\n        /* \"#utility.yul\":1036:1089   */\n      tag_134\n        /* \"#utility.yul\":1081:1088   */\n      dup6\n        /* \"#utility.yul\":1072:1078   */\n      dup3\n        /* \"#utility.yul\":1061:1070   */\n      dup7\n        /* \"#utility.yul\":1057:1079   */\n      add\n        /* \"#utility.yul\":1036:1089   */\n      tag_117\n      jump\t// in\n    tag_134:\n        /* \"#utility.yul\":1026:1089   */\n      swap2\n      pop\n        /* \"#utility.yul\":981:1099   */\n      pop\n        /* \"#utility.yul\":632:1106   */\n      swap3\n      pop\n      swap3\n      swap1\n      pop\n      jump\t// out\n        /* \"#utility.yul\":1112:1731   */\n    tag_34:\n        /* \"#utility.yul\":1189:1195   */\n      0x00\n        /* \"#utility.yul\":1197:1203   */\n      dup1\n        /* \"#utility.yul\":1205:1211   */\n      0x00\n        /* \"#utility.yul\":1254:1256   */\n      0x60\n        /* \"#utility.yul\":1242:1251   */\n      dup5\n        /* \"#utility.yul\":1233:1240   */\n      dup7\n        /* \"#utility.yul\":1229:1252   */\n      sub\n        /* \"#utility.yul\":1225:1257   */\n      slt\n        /* \"#utility.yul\":1222:1341   */\n      iszero\n      tag_136\n      jumpi\n        /* \"#utility.yul\":1260:1339   */\n      tag_137\n      tag_128\n      jump\t// in\n    tag_137:\n        /* \"#utility.yul\":1222:1341   */\n    tag_136:\n        /* \"#utility.yul\":1380:1381   */\n      0x00\n        /* \"#utility.yul\":1405:1458   */\n      tag_138\n        /* \"#utility.yul\":1450:1457   */\n      dup7\n        /* \"#utility.yul\":1441:1447   */\n      dup3\n        /* \"#utility.yul\":1430:1439   */\n      dup8\n        /* \"#utility.yul\":1426:1448   */\n      add\n        /* \"#utility.yul\":1405:1458   */\n      tag_117\n      jump\t// in\n    tag_138:\n        /* \"#utility.yul\":1395:1458   */\n      swap4\n      pop\n        /* \"#utility.yul\":1351:1468   */\n      pop\n        /* \"#utility.yul\":1507:1509   */\n      0x20\n        /* \"#utility.yul\":1533:1586   */\n      tag_139\n        /* \"#utility.yul\":1578:1585   */\n      dup7\n        /* \"#utility.yul\":1569:1575   */\n      dup3\n        /* \"#utility.yul\":1558:1567   */\n      dup8\n        /* \"#utility.yul\":1554:1576   */\n      add\n        /* \"#utility.yul\":1533:1586   */\n      tag_117\n      jump\t// in\n    tag_139:\n        /* \"#utility.yul\":1523:1586   */\n      swap3\n      pop\n        /* \"#utility.yul\":1478:1596   */\n      pop\n        /* \"#utility.yul\":1635:1637   */\n      0x40\n        /* \"#utility.yul\":1661:1714   */\n      tag_140\n        /* \"#utility.yul\":1706:1713   */\n      dup7\n        /* \"#utility.yul\":1697:1703   */\n      dup3\n        /* \"#utility.yul\":1686:1695   */\n      dup8\n        /* \"#utility.yul\":1682:1704   */\n      add\n        /* \"#utility.yul\":1661:1714   */\n      tag_121\n      jump\t// in\n    tag_140:\n        /* \"#utility.yul\":1651:1714   */\n      swap2\n      pop\n        /* \"#utility.yul\":1606:1724   */\n      pop\n        /* \"#utility.yul\":1112:1731   */\n      swap3\n      pop\n      swap3\n      pop\n      swap3\n      jump\t// out\n        /* \"#utility.yul\":1737:2211   */\n    tag_22:\n        /* \"#utility.yul\":1805:1811   */\n      0x00\n        /* \"#utility.yul\":1813:1819   */\n      dup1\n        /* \"#utility.yul\":1862:1864   */\n      0x40\n        /* \"#utility.yul\":1850:1859   */\n      dup4\n        /* \"#utility.yul\":1841:1848   */\n      dup6\n        /* \"#utility.yul\":1837:1860   */\n      sub\n        /* \"#utility.yul\":1833:1865   */\n      slt\n        /* \"#utility.yul\":1830:1949   */\n      iszero\n      tag_142\n      jumpi\n        /* \"#utility.yul\":1868:1947   */\n      tag_143\n      tag_128\n      jump\t// in\n    tag_143:\n        /* \"#utility.yul\":1830:1949   */\n    tag_142:\n        /* \"#utility.yul\":1988:1989   */\n      0x00\n        /* \"#utility.yul\":2013:2066   */\n      tag_144\n        /* \"#utility.yul\":2058:2065   */\n      dup6\n        /* \"#utility.yul\":2049:2055   */\n      dup3\n        /* \"#utility.yul\":2038:2047   */\n      dup7\n        /* \"#utility.yul\":2034:2056   */\n      add\n        /* \"#utility.yul\":2013:2066   */\n      tag_117\n      jump\t// in\n    tag_144:\n        /* \"#utility.yul\":2003:2066   */\n      swap3\n      pop\n        /* \"#utility.yul\":1959:2076   */\n      pop\n        /* \"#utility.yul\":2115:2117   */\n      0x20\n        /* \"#utility.yul\":2141:2194   */\n      tag_145\n        /* \"#utility.yul\":2186:2193   */\n      dup6\n        /* \"#utility.yul\":2177:2183   */\n      dup3\n        /* \"#utility.yul\":2166:2175   */\n      dup7\n        /* \"#utility.yul\":2162:2184   */\n      add\n        /* \"#utility.yul\":2141:2194   */\n      tag_121\n      jump\t// in\n    tag_145:\n        /* \"#utility.yul\":2131:2194   */\n      swap2\n      pop\n        /* \"#utility.yul\":2086:2204   */\n      pop\n        /* \"#utility.yul\":1737:2211   */\n      swap3\n      pop\n      swap3\n      swap1\n      pop\n      jump\t// out\n        /* \"#utility.yul\":2217:2326   */\n    tag_146:\n        /* \"#utility.yul\":2298:2319   */\n      tag_148\n        /* \"#utility.yul\":2313:2318   */\n      dup2\n        /* \"#utility.yul\":2298:2319   */\n      tag_149\n      jump\t// in\n    tag_148:\n        /* \"#utility.yul\":2293:2296   */\n      dup3\n        /* \"#utility.yul\":2286:2320   */\n      mstore\n        /* \"#utility.yul\":2217:2326   */\n      pop\n      pop\n      jump\t// out\n        /* \"#utility.yul\":2332:2696   */\n    tag_150:\n        /* \"#utility.yul\":2420:2423   */\n      0x00\n        /* \"#utility.yul\":2448:2487   */\n      tag_152\n        /* \"#utility.yul\":2481:2486   */\n      dup3\n        /* \"#utility.yul\":2448:2487   */\n      tag_153\n      jump\t// in\n    tag_152:\n        /* \"#utility.yul\":2503:2574   */\n      tag_154\n        /* \"#utility.yul\":2567:2573   */\n      dup2\n        /* \"#utility.yul\":2562:2565   */\n      dup6\n        /* \"#utility.yul\":2503:2574   */\n      tag_155\n      jump\t// in\n    tag_154:\n        /* \"#utility.yul\":2496:2574   */\n      swap4\n      pop\n        /* \"#utility.yul\":2583:2635   */\n      tag_156\n        /* \"#utility.yul\":2628:2634   */\n      dup2\n        /* \"#utility.yul\":2623:2626   */\n      dup6\n        /* \"#utility.yul\":2616:2620   */\n      0x20\n        /* \"#utility.yul\":2609:2614   */\n      dup7\n        /* \"#utility.yul\":2605:2621   */\n      add\n        /* \"#utility.yul\":2583:2635   */\n      tag_157\n      jump\t// in\n    tag_156:\n        /* \"#utility.yul\":2660:2689   */\n      tag_158\n        /* \"#utility.yul\":2682:2688   */\n      dup2\n        /* \"#utility.yul\":2660:2689   */\n      tag_159\n      jump\t// in\n    tag_158:\n        /* \"#utility.yul\":2655:2658   */\n      dup5\n        /* \"#utility.yul\":2651:2690   */\n      add\n        /* \"#utility.yul\":2644:2690   */\n      swap2\n      pop\n        /* \"#utility.yul\":2424:2696   */\n      pop\n        /* \"#utility.yul\":2332:2696   */\n      swap3\n      swap2\n      pop\n      pop\n      jump\t// out\n        /* \"#utility.yul\":2702:3068   */\n    tag_160:\n        /* \"#utility.yul\":2844:2847   */\n      0x00\n        /* \"#utility.yul\":2865:2932   */\n      tag_162\n        /* \"#utility.yul\":2929:2931   */\n      0x21\n        /* \"#utility.yul\":2924:2927   */\n      dup4\n        /* \"#utility.yul\":2865:2932   */\n      tag_155\n      jump\t// in\n    tag_162:\n        /* \"#utility.yul\":2858:2932   */\n      swap2\n      pop\n        /* \"#utility.yul\":2941:3034   */\n      tag_163\n        /* \"#utility.yul\":3030:3033   */\n      dup3\n        /* \"#utility.yul\":2941:3034   */\n      tag_164\n      jump\t// in\n    tag_163:\n        /* \"#utility.yul\":3059:3061   */\n      0x40\n        /* \"#utility.yul\":3054:3057   */\n      dup3\n        /* \"#utility.yul\":3050:3062   */\n      add\n        /* \"#utility.yul\":3043:3062   */\n      swap1\n      pop\n        /* \"#utility.yul\":2702:3068   */\n      swap2\n      swap1\n      pop\n      jump\t// out\n        /* \"#utility.yul\":3074:3192   */\n    tag_165:\n        /* \"#utility.yul\":3161:3185   */\n      tag_167\n        /* \"#utility.yul\":3179:3184   */\n      dup2\n        /* \"#utility.yul\":3161:3185   */\n      tag_168\n      jump\t// in\n    tag_167:\n        /* \"#utility.yul\":3156:3159   */\n      dup3\n        /* \"#utility.yul\":3149:3186   */\n      mstore\n        /* \"#utility.yul\":3074:3192   */\n      pop\n      pop\n      jump\t// out\n        /* \"#utility.yul\":3198:3310   */\n    tag_169:\n        /* \"#utility.yul\":3281:3303   */\n      tag_171\n        /* \"#utility.yul\":3297:3302   */\n      dup2\n        /* \"#utility.yul\":3281:3303   */\n      tag_172\n      jump\t// in\n    tag_171:\n        /* \"#utility.yul\":3276:3279   */\n      dup3\n        /* \"#utility.yul\":3269:3304   */\n      mstore\n        /* \"#utility.yul\":3198:3310   */\n      pop\n      pop\n      jump\t// out\n        /* \"#utility.yul\":3316:3526   */\n    tag_25:\n        /* \"#utility.yul\":3403:3407   */\n      0x00\n        /* \"#utility.yul\":3441:3443   */\n      0x20\n        /* \"#utility.yul\":3430:3439   */\n      dup3\n        /* \"#utility.yul\":3426:3444   */\n      add\n        /* \"#utility.yul\":3418:3444   */\n      swap1\n      pop\n        /* \"#utility.yul\":3454:3519   */\n      tag_174\n        /* \"#utility.yul\":3516:3517   */\n      0x00\n        /* \"#utility.yul\":3505:3514   */\n      dup4\n        /* \"#utility.yul\":3501:3518   */\n      add\n        /* \"#utility.yul\":3492:3498   */\n      dup5\n        /* \"#utility.yul\":3454:3519   */\n      tag_146\n      jump\t// in\n    tag_174:\n        /* \"#utility.yul\":3316:3526   */\n      swap3\n      swap2\n      pop\n      pop\n      jump\t// out\n        /* \"#utility.yul\":3532:3845   */\n    tag_18:\n        /* \"#utility.yul\":3645:3649   */\n      0x00\n        /* \"#utility.yul\":3683:3685   */\n      0x20\n        /* \"#utility.yul\":3672:3681   */\n      dup3\n        /* \"#utility.yul\":3668:3686   */\n      add\n        /* \"#utility.yul\":3660:3686   */\n      swap1\n      pop\n        /* \"#utility.yul\":3732:3741   */\n      dup2\n        /* \"#utility.yul\":3726:3730   */\n      dup2\n        /* \"#utility.yul\":3722:3742   */\n      sub\n        /* \"#utility.yul\":3718:3719   */\n      0x00\n        /* \"#utility.yul\":3707:3716   */\n      dup4\n        /* \"#utility.yul\":3703:3720   */\n      add\n        /* \"#utility.yul\":3696:3743   */\n      mstore\n        /* \"#utility.yul\":3760:3838   */\n      tag_176\n        /* \"#utility.yul\":3833:3837   */\n      dup2\n        /* \"#utility.yul\":3824:3830   */\n      dup5\n        /* \"#utility.yul\":3760:3838   */\n      tag_150\n      jump\t// in\n    tag_176:\n        /* \"#utility.yul\":3752:3838   */\n      swap1\n      pop\n        /* \"#utility.yul\":3532:3845   */\n      swap3\n      swap2\n      pop\n      pop\n      jump\t// out\n        /* \"#utility.yul\":3851:4270   */\n    tag_87:\n        /* \"#utility.yul\":4017:4021   */\n      0x00\n        /* \"#utility.yul\":4055:4057   */\n      0x20\n        /* \"#utility.yul\":4044:4053   */\n      dup3\n        /* \"#utility.yul\":4040:4058   */\n      add\n        /* \"#utility.yul\":4032:4058   */\n      swap1\n      pop\n        /* \"#utility.yul\":4104:4113   */\n      dup2\n        /* \"#utility.yul\":4098:4102   */\n      dup2\n        /* \"#utility.yul\":4094:4114   */\n      sub\n        /* \"#utility.yul\":4090:4091   */\n      0x00\n        /* \"#utility.yul\":4079:4088   */\n      dup4\n        /* \"#utility.yul\":4075:4092   */\n      add\n        /* \"#utility.yul\":4068:4115   */\n      mstore\n        /* \"#utility.yul\":4132:4263   */\n      tag_178\n        /* \"#utility.yul\":4258:4262   */\n      dup2\n        /* \"#utility.yul\":4132:4263   */\n      tag_160\n      jump\t// in\n    tag_178:\n        /* \"#utility.yul\":4124:4263   */\n      swap1\n      pop\n        /* \"#utility.yul\":3851:4270   */\n      swap2\n      swap1\n      pop\n      jump\t// out\n        /* \"#utility.yul\":4276:4498   */\n    tag_30:\n        /* \"#utility.yul\":4369:4373   */\n      0x00\n        /* \"#utility.yul\":4407:4409   */\n      0x20\n        /* \"#utility.yul\":4396:4405   */\n      dup3\n        /* \"#utility.yul\":4392:4410   */\n      add\n        /* \"#utility.yul\":4384:4410   */\n      swap1\n      pop\n        /* \"#utility.yul\":4420:4491   */\n      tag_180\n        /* \"#utility.yul\":4488:4489   */\n      0x00\n        /* \"#utility.yul\":4477:4486   */\n      dup4\n        /* \"#utility.yul\":4473:4490   */\n      add\n        /* \"#utility.yul\":4464:4470   */\n      dup5\n        /* \"#utility.yul\":4420:4491   */\n      tag_165\n      jump\t// in\n    tag_180:\n        /* \"#utility.yul\":4276:4498   */\n      swap3\n      swap2\n      pop\n      pop\n      jump\t// out\n        /* \"#utility.yul\":4504:4718   */\n    tag_41:\n        /* \"#utility.yul\":4593:4597   */\n      0x00\n        /* \"#utility.yul\":4631:4633   */\n      0x20\n        /* \"#utility.yul\":4620:4629   */\n      dup3\n        /* \"#utility.yul\":4616:4634   */\n      add\n        /* \"#utility.yul\":4608:4634   */\n      swap1\n      pop\n        /* \"#utility.yul\":4644:4711   */\n      tag_182\n        /* \"#utility.yul\":4708:4709   */\n      0x00\n        /* \"#utility.yul\":4697:4706   */\n      dup4\n        /* \"#utility.yul\":4693:4710   */\n      add\n        /* \"#utility.yul\":4684:4690   */\n      dup5\n        /* \"#utility.yul\":4644:4711   */\n      tag_169\n      jump\t// in\n    tag_182:\n        /* \"#utility.yul\":4504:4718   */\n      swap3\n      swap2\n      pop\n      pop\n      jump\t// out\n        /* \"#utility.yul\":4805:4904   */\n    tag_153:\n        /* \"#utility.yul\":4857:4863   */\n      0x00\n        /* \"#utility.yul\":4891:4896   */\n      dup2\n        /* \"#utility.yul\":4885:4897   */\n      mload\n        /* \"#utility.yul\":4875:4897   */\n      swap1\n      pop\n        /* \"#utility.yul\":4805:4904   */\n      swap2\n      swap1\n      pop\n      jump\t// out\n        /* \"#utility.yul\":4910:5079   */\n    tag_155:\n        /* \"#utility.yul\":4994:5005   */\n      0x00\n        /* \"#utility.yul\":5028:5034   */\n      dup3\n        /* \"#utility.yul\":5023:5026   */\n      dup3\n        /* \"#utility.yul\":5016:5035   */\n      mstore\n        /* \"#utility.yul\":5068:5072   */\n      0x20\n        /* \"#utility.yul\":5063:5066   */\n      dup3\n        /* \"#utility.yul\":5059:5073   */\n      add\n        /* \"#utility.yul\":5044:5073   */\n      swap1\n      pop\n        /* \"#utility.yul\":4910:5079   */\n      swap3\n      swap2\n      pop\n      pop\n      jump\t// out\n        /* \"#utility.yul\":5085:5390   */\n    tag_97:\n        /* \"#utility.yul\":5125:5128   */\n      0x00\n        /* \"#utility.yul\":5144:5164   */\n      tag_188\n        /* \"#utility.yul\":5162:5163   */\n      dup3\n        /* \"#utility.yul\":5144:5164   */\n      tag_168\n      jump\t// in\n    tag_188:\n        /* \"#utility.yul\":5139:5164   */\n      swap2\n      pop\n        /* \"#utility.yul\":5178:5198   */\n      tag_189\n        /* \"#utility.yul\":5196:5197   */\n      dup4\n        /* \"#utility.yul\":5178:5198   */\n      tag_168\n      jump\t// in\n    tag_189:\n        /* \"#utility.yul\":5173:5198   */\n      swap3\n      pop\n        /* \"#utility.yul\":5332:5333   */\n      dup3\n        /* \"#utility.yul\":5264:5330   */\n      0xffffffffffffffffffffffffffffffffffffffffffffffffffffffffffffffff\n        /* \"#utility.yul\":5260:5334   */\n      sub\n        /* \"#utility.yul\":5257:5258   */\n      dup3\n        /* \"#utility.yul\":5254:5335   */\n      gt\n        /* \"#utility.yul\":5251:5358   */\n      iszero\n      tag_190\n      jumpi\n        /* \"#utility.yul\":5338:5356   */\n      tag_191\n      tag_192\n      jump\t// in\n    tag_191:\n        /* \"#utility.yul\":5251:5358   */\n    tag_190:\n        /* \"#utility.yul\":5382:5383   */\n      dup3\n        /* \"#utility.yul\":5379:5380   */\n      dup3\n        /* \"#utility.yul\":5375:5384   */\n      add\n        /* \"#utility.yul\":5368:5384   */\n      swap1\n      pop\n        /* \"#utility.yul\":5085:5390   */\n      swap3\n      swap2\n      pop\n      pop\n      jump\t// out\n        /* \"#utility.yul\":5396:5581   */\n    tag_93:\n        /* \"#utility.yul\":5436:5437   */\n      0x00\n        /* \"#utility.yul\":5453:5473   */\n      tag_194\n        /* \"#utility.yul\":5471:5472   */\n      dup3\n        /* \"#utility.yul\":5453:5473   */\n      tag_168\n      jump\t// in\n    tag_194:\n        /* \"#utility.yul\":5448:5473   */\n      swap2\n      pop\n        /* \"#utility.yul\":5487:5507   */\n      tag_195\n        /* \"#utility.yul\":5505:5506   */\n      dup4\n        /* \"#utility.yul\":5487:5507   */\n      tag_168\n      jump\t// in\n    tag_195:\n        /* \"#utility.yul\":5482:5507   */\n      swap3\n      pop\n        /* \"#utility.yul\":5526:5527   */\n      dup3\n        /* \"#utility.yul\":5516:5551   */\n      tag_196\n      jumpi\n        /* \"#utility.yul\":5531:5549   */\n      tag_197\n      tag_198\n      jump\t// in\n    tag_197:\n        /* \"#utility.yul\":5516:5551   */\n    tag_196:\n        /* \"#utility.yul\":5573:5574   */\n      dup3\n        /* \"#utility.yul\":5570:5571   */\n      dup3\n        /* \"#utility.yul\":5566:5575   */\n      div\n        /* \"#utility.yul\":5561:5575   */\n      swap1\n      pop\n        /* \"#utility.yul\":5396:5581   */\n      swap3\n      swap2\n      pop\n      pop\n      jump\t// out\n        /* \"#utility.yul\":5587:6435   */\n    tag_199:\n        /* \"#utility.yul\":5648:5653   */\n      0x00\n        /* \"#utility.yul\":5655:5659   */\n      dup1\n        /* \"#utility.yul\":5679:5685   */\n      dup3\n        /* \"#utility.yul\":5670:5685   */\n      swap2\n      pop\n        /* \"#utility.yul\":5703:5708   */\n      dup4\n        /* \"#utility.yul\":5694:5708   */\n      swap1\n      pop\n        /* \"#utility.yul\":5717:6429   */\n    tag_201:\n        /* \"#utility.yul\":5738:5739   */\n      0x01\n        /* \"#utility.yul\":5728:5736   */\n      dup6\n        /* \"#utility.yul\":5725:5740   */\n      gt\n        /* \"#utility.yul\":5717:6429   */\n      iszero\n      tag_203\n      jumpi\n        /* \"#utility.yul\":5833:5837   */\n      dup1\n        /* \"#utility.yul\":5828:5831   */\n      dup7\n        /* \"#utility.yul\":5824:5838   */\n      div\n        /* \"#utility.yul\":5818:5822   */\n      dup2\n        /* \"#utility.yul\":5815:5839   */\n      gt\n        /* \"#utility.yul\":5812:5862   */\n      iszero\n      tag_204\n      jumpi\n        /* \"#utility.yul\":5842:5860   */\n      tag_205\n      tag_192\n      jump\t// in\n    tag_205:\n        /* \"#utility.yul\":5812:5862   */\n    tag_204:\n        /* \"#utility.yul\":5892:5893   */\n      0x01\n        /* \"#utility.yul\":5882:5890   */\n      dup6\n        /* \"#utility.yul\":5878:5894   */\n      and\n        /* \"#utility.yul\":5875:6326   */\n      iszero\n      tag_206\n      jumpi\n        /* \"#utility.yul\":6307:6311   */\n      dup1\n        /* \"#utility.yul\":6300:6305   */\n      dup3\n        /* \"#utility.yul\":6296:6312   */\n      mul\n        /* \"#utility.yul\":6287:6312   */\n      swap2\n      pop\n        /* \"#utility.yul\":5875:6326   */\n    tag_206:\n        /* \"#utility.yul\":6357:6361   */\n      dup1\n        /* \"#utility.yul\":6351:6355   */\n      dup2\n        /* \"#utility.yul\":6347:6362   */\n      mul\n        /* \"#utility.yul\":6339:6362   */\n      swap1\n      pop\n        /* \"#utility.yul\":6387:6419   */\n      tag_207\n        /* \"#utility.yul\":6410:6418   */\n      dup6\n        /* \"#utility.yul\":6387:6419   */\n      tag_208\n      jump\t// in\n    tag_207:\n        /* \"#utility.yul\":6375:6419   */\n      swap5\n      pop\n        /* \"#utility.yul\":5717:6429   */\n      jump(tag_201)\n    tag_203:\n        /* \"#utility.yul\":5587:6435   */\n      swap5\n      pop\n      swap5\n      swap3\n      pop\n      pop\n      pop\n      jump\t// out\n        /* \"#utility.yul\":6441:6722   */\n    tag_89:\n        /* \"#utility.yul\":6499:6504   */\n      0x00\n        /* \"#utility.yul\":6523:6546   */\n      tag_210\n        /* \"#utility.yul\":6541:6545   */\n      dup3\n        /* \"#utility.yul\":6523:6546   */\n      tag_168\n      jump\t// in\n    tag_210:\n        /* \"#utility.yul\":6515:6546   */\n      swap2\n      pop\n        /* \"#utility.yul\":6567:6592   */\n      tag_211\n        /* \"#utility.yul\":6583:6591   */\n      dup4\n        /* \"#utility.yul\":6567:6592   */\n      tag_172\n      jump\t// in\n    tag_211:\n        /* \"#utility.yul\":6555:6592   */\n      swap3\n      pop\n        /* \"#utility.yul\":6611:6715   */\n      tag_212\n        /* \"#utility.yul\":6648:6714   */\n      0xffffffffffffffffffffffffffffffffffffffffffffffffffffffffffffffff\n        /* \"#utility.yul\":6638:6646   */\n      dup5\n        /* \"#utility.yul\":6632:6636   */\n      dup5\n        /* \"#utility.yul\":6611:6715   */\n      tag_213\n      jump\t// in\n    tag_212:\n        /* \"#utility.yul\":6602:6715   */\n      swap1\n      pop\n        /* \"#utility.yul\":6441:6722   */\n      swap3\n      swap2\n      pop\n      pop\n      jump\t// out\n        /* \"#utility.yul\":6728:7801   */\n    tag_213:\n        /* \"#utility.yul\":6782:6787   */\n      0x00\n        /* \"#utility.yul\":6973:6981   */\n      dup3\n        /* \"#utility.yul\":6963:7003   */\n      tag_215\n      jumpi\n        /* \"#utility.yul\":6994:6995   */\n      0x01\n        /* \"#utility.yul\":6985:6995   */\n      swap1\n      pop\n        /* \"#utility.yul\":6996:7001   */\n      jump(tag_214)\n        /* \"#utility.yul\":6963:7003   */\n    tag_215:\n        /* \"#utility.yul\":7022:7026   */\n      dup2\n        /* \"#utility.yul\":7012:7048   */\n      tag_216\n      jumpi\n        /* \"#utility.yul\":7039:7040   */\n      0x00\n        /* \"#utility.yul\":7030:7040   */\n      swap1\n      pop\n        /* \"#utility.yul\":7041:7046   */\n      jump(tag_214)\n        /* \"#utility.yul\":7012:7048   */\n    tag_216:\n        /* \"#utility.yul\":7108:7112   */\n      dup2\n        /* \"#utility.yul\":7156:7157   */\n      0x01\n        /* \"#utility.yul\":7151:7178   */\n      dup2\n      eq\n      tag_218\n      jumpi\n        /* \"#utility.yul\":7192:7193   */\n      0x02\n        /* \"#utility.yul\":7187:7378   */\n      dup2\n      eq\n      tag_219\n      jumpi\n        /* \"#utility.yul\":7101:7378   */\n      jump(tag_217)\n        /* \"#utility.yul\":7151:7178   */\n    tag_218:\n        /* \"#utility.yul\":7169:7170   */\n      0x01\n        /* \"#utility.yul\":7160:7170   */\n      swap2\n      pop\n        /* \"#utility.yul\":7171:7176   */\n      pop\n      jump(tag_214)\n        /* \"#utility.yul\":7187:7378   */\n    tag_219:\n        /* \"#utility.yul\":7232:7235   */\n      0xff\n        /* \"#utility.yul\":7222:7230   */\n      dup5\n        /* \"#utility.yul\":7219:7236   */\n      gt\n        /* \"#utility.yul\":7216:7259   */\n      iszero\n      tag_220\n      jumpi\n        /* \"#utility.yul\":7239:7257   */\n      tag_221\n      tag_192\n      jump\t// in\n    tag_221:\n        /* \"#utility.yul\":7216:7259   */\n    tag_220:\n        /* \"#utility.yul\":7288:7296   */\n      dup4\n        /* \"#utility.yul\":7285:7286   */\n      0x02\n        /* \"#utility.yul\":7281:7297   */\n      exp\n        /* \"#utility.yul\":7272:7297   */\n      swap2\n      pop\n        /* \"#utility.yul\":7323:7326   */\n      dup5\n        /* \"#utility.yul\":7316:7321   */\n      dup3\n        /* \"#utility.yul\":7313:7327   */\n      gt\n        /* \"#utility.yul\":7310:7350   */\n      iszero\n      tag_222\n      jumpi\n        /* \"#utility.yul\":7330:7348   */\n      tag_223\n      tag_192\n      jump\t// in\n    tag_223:\n        /* \"#utility.yul\":7310:7350   */\n    tag_222:\n        /* \"#utility.yul\":7363:7368   */\n      pop\n      jump(tag_214)\n        /* \"#utility.yul\":7101:7378   */\n    tag_217:\n      pop\n        /* \"#utility.yul\":7487:7489   */\n      0x20\n        /* \"#utility.yul\":7477:7485   */\n      dup4\n        /* \"#utility.yul\":7474:7490   */\n      lt\n        /* \"#utility.yul\":7468:7471   */\n      0x0133\n        /* \"#utility.yul\":7462:7466   */\n      dup4\n        /* \"#utility.yul\":7459:7472   */\n      lt\n        /* \"#utility.yul\":7455:7491   */\n      and\n        /* \"#utility.yul\":7437:7439   */\n      0x4e\n        /* \"#utility.yul\":7427:7435   */\n      dup5\n        /* \"#utility.yul\":7424:7440   */\n      lt\n        /* \"#utility.yul\":7419:7421   */\n      0x0b\n        /* \"#utility.yul\":7413:7417   */\n      dup5\n        /* \"#utility.yul\":7410:7422   */\n      lt\n        /* \"#utility.yul\":7406:7441   */\n      and\n        /* \"#utility.yul\":7390:7501   */\n      or\n        /* \"#utility.yul\":7387:7633   */\n      iszero\n      tag_224\n      jumpi\n        /* \"#utility.yul\":7543:7551   */\n      dup3\n        /* \"#utility.yul\":7537:7541   */\n      dup3\n        /* \"#utility.yul\":7533:7552   */\n      exp\n        /* \"#utility.yul\":7524:7552   */\n      swap1\n      pop\n        /* \"#utility.yul\":7578:7581   */\n      dup4\n        /* \"#utility.yul\":7571:7576   */\n      dup2\n        /* \"#utility.yul\":7568:7582   */\n      gt\n        /* \"#utility.yul\":7565:7605   */\n      iszero\n      tag_225\n      jumpi\n        /* \"#utility.yul\":7585:7603   */\n      tag_226\n      tag_192\n      jump\t// in\n    tag_226:\n        /* \"#utility.yul\":7565:7605   */\n    tag_225:\n        /* \"#utility.yul\":7618:7623   */\n      jump(tag_214)\n        /* \"#utility.yul\":7387:7633   */\n    tag_224:\n        /* \"#utility.yul\":7658:7700   */\n      tag_227\n        /* \"#utility.yul\":7696:7699   */\n      dup5\n        /* \"#utility.yul\":7686:7694   */\n      dup5\n        /* \"#utility.yul\":7680:7684   */\n      dup5\n        /* \"#utility.yul\":7677:7678   */\n      0x01\n        /* \"#utility.yul\":7658:7700   */\n      tag_199\n      jump\t// in\n    tag_227:\n        /* \"#utility.yul\":7643:7700   */\n      swap3\n      pop\n      swap1\n      pop\n        /* \"#utility.yul\":7732:7736   */\n      dup2\n        /* \"#utility.yul\":7727:7730   */\n      dup5\n        /* \"#utility.yul\":7723:7737   */\n      div\n        /* \"#utility.yul\":7716:7721   */\n      dup2\n        /* \"#utility.yul\":7713:7738   */\n      gt\n        /* \"#utility.yul\":7710:7761   */\n      iszero\n      tag_228\n      jumpi\n        /* \"#utility.yul\":7741:7759   */\n      tag_229\n      tag_192\n      jump\t// in\n    tag_229:\n        /* \"#utility.yul\":7710:7761   */\n    tag_228:\n        /* \"#utility.yul\":7790:7794   */\n      dup2\n        /* \"#utility.yul\":7783:7788   */\n      dup2\n        /* \"#utility.yul\":7779:7795   */\n      mul\n        /* \"#utility.yul\":7770:7795   */\n      swap1\n      pop\n        /* \"#utility.yul\":6728:7801   */\n    tag_214:\n      swap4\n      swap3\n      pop\n      pop\n      pop\n      jump\t// out\n        /* \"#utility.yul\":7807:8155   */\n    tag_91:\n        /* \"#utility.yul\":7847:7854   */\n      0x00\n        /* \"#utility.yul\":7870:7890   */\n      tag_231\n        /* \"#utility.yul\":7888:7889   */\n      dup3\n        /* \"#utility.yul\":7870:7890   */\n      tag_168\n      jump\t// in\n    tag_231:\n        /* \"#utility.yul\":7865:7890   */\n      swap2\n      pop\n        /* \"#utility.yul\":7904:7924   */\n      tag_232\n        /* \"#utility.yul\":7922:7923   */\n      dup4\n        /* \"#utility.yul\":7904:7924   */\n      tag_168\n      jump\t// in\n    tag_232:\n        /* \"#utility.yul\":7899:7924   */\n      swap3\n      pop\n        /* \"#utility.yul\":8092:8093   */\n      dup2\n        /* \"#utility.yul\":8024:8090   */\n      0xffffffffffffffffffffffffffffffffffffffffffffffffffffffffffffffff\n        /* \"#utility.yul\":8020:8094   */\n      div\n        /* \"#utility.yul\":8017:8018   */\n      dup4\n        /* \"#utility.yul\":8014:8095   */\n      gt\n        /* \"#utility.yul\":8009:8010   */\n      dup3\n        /* \"#utility.yul\":8002:8011   */\n      iszero\n        /* \"#utility.yul\":7995:8012   */\n      iszero\n        /* \"#utility.yul\":7991:8096   */\n      and\n        /* \"#utility.yul\":7988:8119   */\n      iszero\n      tag_233\n      jumpi\n        /* \"#utility.yul\":8099:8117   */\n      tag_234\n      tag_192\n      jump\t// in\n    tag_234:\n        /* \"#utility.yul\":7988:8119   */\n    tag_233:\n        /* \"#utility.yul\":8147:8148   */\n      dup3\n        /* \"#utility.yul\":8144:8145   */\n      dup3\n        /* \"#utility.yul\":8140:8149   */\n      mul\n        /* \"#utility.yul\":8129:8149   */\n      swap1\n      pop\n        /* \"#utility.yul\":7807:8155   */\n      swap3\n      swap2\n      pop\n      pop\n      jump\t// out\n        /* \"#utility.yul\":8161:8352   */\n    tag_111:\n        /* \"#utility.yul\":8201:8205   */\n      0x00\n        /* \"#utility.yul\":8221:8241   */\n      tag_236\n        /* \"#utility.yul\":8239:8240   */\n      dup3\n        /* \"#utility.yul\":8221:8241   */\n      tag_168\n      jump\t// in\n    tag_236:\n        /* \"#utility.yul\":8216:8241   */\n      swap2\n      pop\n        /* \"#utility.yul\":8255:8275   */\n      tag_237\n        /* \"#utility.yul\":8273:8274   */\n      dup4\n        /* \"#utility.yul\":8255:8275   */\n      tag_168\n      jump\t// in\n    tag_237:\n        /* \"#utility.yul\":8250:8275   */\n      swap3\n      pop\n        /* \"#utility.yul\":8294:8295   */\n      dup3\n        /* \"#utility.yul\":8291:8292   */\n      dup3\n        /* \"#utility.yul\":8288:8296   */\n      lt\n        /* \"#utility.yul\":8285:8319   */\n      iszero\n      tag_238\n      jumpi\n        /* \"#utility.yul\":8299:8317   */\n      tag_239\n      tag_192\n      jump\t// in\n    tag_239:\n        /* \"#utility.yul\":8285:8319   */\n    tag_238:\n        /* \"#utility.yul\":8344:8345   */\n      dup3\n        /* \"#utility.yul\":8341:8342   */\n      dup3\n        /* \"#utility.yul\":8337:8346   */\n      sub\n        /* \"#utility.yul\":8329:8346   */\n      swap1\n      pop\n        /* \"#utility.yul\":8161:8352   */\n      swap3\n      swap2\n      pop\n      pop\n      jump\t// out\n        /* \"#utility.yul\":8358:8454   */\n    tag_240:\n        /* \"#utility.yul\":8395:8402   */\n      0x00\n        /* \"#utility.yul\":8424:8448   */\n      tag_242\n        /* \"#utility.yul\":8442:8447   */\n      dup3\n        /* \"#utility.yul\":8424:8448   */\n      tag_243\n      jump\t// in\n    tag_242:\n        /* \"#utility.yul\":8413:8448   */\n      swap1\n      pop\n        /* \"#utility.yul\":8358:8454   */\n      swap2\n      swap1\n      pop\n      jump\t// out\n        /* \"#utility.yul\":8460:8550   */\n    tag_149:\n        /* \"#utility.yul\":8494:8501   */\n      0x00\n        /* \"#utility.yul\":8537:8542   */\n      dup2\n        /* \"#utility.yul\":8530:8543   */\n      iszero\n        /* \"#utility.yul\":8523:8544   */\n      iszero\n        /* \"#utility.yul\":8512:8544   */\n      swap1\n      pop\n        /* \"#utility.yul\":8460:8550   */\n      swap2\n      swap1\n      pop\n      jump\t// out\n        /* \"#utility.yul\":8556:8682   */\n    tag_243:\n        /* \"#utility.yul\":8593:8600   */\n      0x00\n        /* \"#utility.yul\":8633:8675   */\n      0xffffffffffffffffffffffffffffffffffffffff\n        /* \"#utility.yul\":8626:8631   */\n      dup3\n        /* \"#utility.yul\":8622:8676   */\n      and\n        /* \"#utility.yul\":8611:8676   */\n      swap1\n      pop\n        /* \"#utility.yul\":8556:8682   */\n      swap2\n      swap1\n      pop\n      jump\t// out\n        /* \"#utility.yul\":8688:8765   */\n    tag_168:\n        /* \"#utility.yul\":8725:8732   */\n      0x00\n        /* \"#utility.yul\":8754:8759   */\n      dup2\n        /* \"#utility.yul\":8743:8759   */\n      swap1\n      pop\n        /* \"#utility.yul\":8688:8765   */\n      swap2\n      swap1\n      pop\n      jump\t// out\n        /* \"#utility.yul\":8771:8857   */\n    tag_172:\n        /* \"#utility.yul\":8806:8813   */\n      0x00\n        /* \"#utility.yul\":8846:8850   */\n      0xff\n        /* \"#utility.yul\":8839:8844   */\n      dup3\n        /* \"#utility.yul\":8835:8851   */\n      and\n        /* \"#utility.yul\":8824:8851   */\n      swap1\n      pop\n        /* \"#utility.yul\":8771:8857   */\n      swap2\n      swap1\n      pop\n      jump\t// out\n        /* \"#utility.yul\":8863:9170   */\n    tag_157:\n        /* \"#utility.yul\":8931:8932   */\n      0x00\n        /* \"#utility.yul\":8941:9054   */\n    tag_249:\n        /* \"#utility.yul\":8955:8961   */\n      dup4\n        /* \"#utility.yul\":8952:8953   */\n      dup2\n        /* \"#utility.yul\":8949:8962   */\n      lt\n        /* \"#utility.yul\":8941:9054   */\n      iszero\n      tag_251\n      jumpi\n        /* \"#utility.yul\":9040:9041   */\n      dup1\n        /* \"#utility.yul\":9035:9038   */\n      dup3\n        /* \"#utility.yul\":9031:9042   */\n      add\n        /* \"#utility.yul\":9025:9043   */\n      mload\n        /* \"#utility.yul\":9021:9022   */\n      dup2\n        /* \"#utility.yul\":9016:9019   */\n      dup5\n        /* \"#utility.yul\":9012:9023   */\n      add\n        /* \"#utility.yul\":9005:9044   */\n      mstore\n        /* \"#utility.yul\":8977:8979   */\n      0x20\n        /* \"#utility.yul\":8974:8975   */\n      dup2\n        /* \"#utility.yul\":8970:8980   */\n      add\n        /* \"#utility.yul\":8965:8980   */\n      swap1\n      pop\n        /* \"#utility.yul\":8941:9054   */\n      jump(tag_249)\n    tag_251:\n        /* \"#utility.yul\":9072:9078   */\n      dup4\n        /* \"#utility.yul\":9069:9070   */\n      dup2\n        /* \"#utility.yul\":9066:9079   */\n      gt\n        /* \"#utility.yul\":9063:9164   */\n      iszero\n      tag_252\n      jumpi\n        /* \"#utility.yul\":9152:9153   */\n      0x00\n        /* \"#utility.yul\":9143:9149   */\n      dup5\n        /* \"#utility.yul\":9138:9141   */\n      dup5\n        /* \"#utility.yul\":9134:9150   */\n      add\n        /* \"#utility.yul\":9127:9154   */\n      mstore\n        /* \"#utility.yul\":9063:9164   */\n    tag_252:\n        /* \"#utility.yul\":8912:9170   */\n      pop\n        /* \"#utility.yul\":8863:9170   */\n      pop\n      pop\n      pop\n      jump\t// out\n        /* \"#utility.yul\":9176:9356   */\n    tag_109:\n        /* \"#utility.yul\":9224:9301   */\n      0x4e487b7100000000000000000000000000000000000000000000000000000000\n        /* \"#utility.yul\":9221:9222   */\n      0x00\n        /* \"#utility.yul\":9214:9302   */\n      mstore\n        /* \"#utility.yul\":9321:9325   */\n      0x01\n        /* \"#utility.yul\":9318:9319   */\n      0x04\n        /* \"#utility.yul\":9311:9326   */\n      mstore\n        /* \"#utility.yul\":9345:9349   */\n      0x24\n        /* \"#utility.yul\":9342:9343   */\n      0x00\n        /* \"#utility.yul\":9335:9350   */\n      revert\n        /* \"#utility.yul\":9362:9542   */\n    tag_192:\n        /* \"#utility.yul\":9410:9487   */\n      0x4e487b7100000000000000000000000000000000000000000000000000000000\n        /* \"#utility.yul\":9407:9408   */\n      0x00\n        /* \"#utility.yul\":9400:9488   */\n      mstore\n        /* \"#utility.yul\":9507:9511   */\n      0x11\n        /* \"#utility.yul\":9504:9505   */\n      0x04\n        /* \"#utility.yul\":9497:9512   */\n      mstore\n        /* \"#utility.yul\":9531:9535   */\n      0x24\n        /* \"#utility.yul\":9528:9529   */\n      0x00\n        /* \"#utility.yul\":9521:9536   */\n      revert\n        /* \"#utility.yul\":9548:9728   */\n    tag_198:\n        /* \"#utility.yul\":9596:9673   */\n      0x4e487b7100000000000000000000000000000000000000000000000000000000\n        /* \"#utility.yul\":9593:9594   */\n      0x00\n        /* \"#utility.yul\":9586:9674   */\n      mstore\n        /* \"#utility.yul\":9693:9697   */\n      0x12\n        /* \"#utility.yul\":9690:9691   */\n      0x04\n        /* \"#utility.yul\":9683:9698   */\n      mstore\n        /* \"#utility.yul\":9717:9721   */\n      0x24\n        /* \"#utility.yul\":9714:9715   */\n      0x00\n        /* \"#utility.yul\":9707:9722   */\n      revert\n        /* \"#utility.yul\":9857:9974   */\n    tag_128:\n        /* \"#utility.yul\":9966:9967   */\n      0x00\n        /* \"#utility.yul\":9963:9964   */\n      dup1\n        /* \"#utility.yul\":9956:9968   */\n      revert\n        /* \"#utility.yul\":9980:10082   */\n    tag_159:\n        /* \"#utility.yul\":10021:10027   */\n      0x00\n        /* \"#utility.yul\":10072:10074   */\n      0x1f\n        /* \"#utility.yul\":10068:10075   */\n      not\n        /* \"#utility.yul\":10063:10065   */\n      0x1f\n        /* \"#utility.yul\":10056:10061   */\n      dup4\n        /* \"#utility.yul\":10052:10066   */\n      add\n        /* \"#utility.yul\":10048:10076   */\n      and\n        /* \"#utility.yul\":10038:10076   */\n      swap1\n      pop\n        /* \"#utility.yul\":9980:10082   */\n      swap2\n      swap1\n      pop\n      jump\t// out\n        /* \"#utility.yul\":10088:10190   */\n    tag_208:\n        /* \"#utility.yul\":10130:10138   */\n      0x00\n        /* \"#utility.yul\":10177:10182   */\n      dup2\n        /* \"#utility.yul\":10174:10175   */\n      0x01\n        /* \"#utility.yul\":10170:10183   */\n      shr\n        /* \"#utility.yul\":10149:10183   */\n      swap1\n      pop\n        /* \"#utility.yul\":10088:10190   */\n      swap2\n      swap1\n      pop\n      jump\t// out\n        /* \"#utility.yul\":10196:10416   */\n    tag_164:\n        /* \"#utility.yul\":10336:10370   */\n      0x596f752063616e6e6f74206d696e742042544b2077697468207a65726f204554\n        /* \"#utility.yul\":10332:10333   */\n      0x00\n        /* \"#utility.yul\":10324:10330   */\n      dup3\n        /* \"#utility.yul\":10320:10334   */\n      add\n        /* \"#utility.yul\":10313:10371   */\n      mstore\n        /* \"#utility.yul\":10405:10408   */\n      0x4800000000000000000000000000000000000000000000000000000000000000\n        /* \"#utility.yul\":10400:10402   */\n      0x20\n        /* \"#utility.yul\":10392:10398   */\n      dup3\n        /* \"#utility.yul\":10388:10403   */\n      add\n        /* \"#utility.yul\":10381:10409   */\n      mstore\n        /* \"#utility.yul\":10196:10416   */\n      pop\n      jump\t// out\n        /* \"#utility.yul\":10422:10544   */\n    tag_120:\n        /* \"#utility.yul\":10495:10519   */\n      tag_263\n        /* \"#utility.yul\":10513:10518   */\n      dup2\n        /* \"#utility.yul\":10495:10519   */\n      tag_240\n      jump\t// in\n    tag_263:\n        /* \"#utility.yul\":10488:10493   */\n      dup2\n        /* \"#utility.yul\":10485:10520   */\n      eq\n        /* \"#utility.yul\":10475:10538   */\n      tag_264\n      jumpi\n        /* \"#utility.yul\":10534:10535   */\n      0x00\n        /* \"#utility.yul\":10531:10532   */\n      dup1\n        /* \"#utility.yul\":10524:10536   */\n      revert\n        /* \"#utility.yul\":10475:10538   */\n    tag_264:\n        /* \"#utility.yul\":10422:10544   */\n      pop\n      jump\t// out\n        /* \"#utility.yul\":10550:10672   */\n    tag_124:\n        /* \"#utility.yul\":10623:10647   */\n      tag_266\n        /* \"#utility.yul\":10641:10646   */\n      dup2\n        /* \"#utility.yul\":10623:10647   */\n      tag_168\n      jump\t// in\n    tag_266:\n        /* \"#utility.yul\":10616:10621   */\n      dup2\n        /* \"#utility.yul\":10613:10648   */\n      eq\n        /* \"#utility.yul\":10603:10666   */\n      tag_267\n      jumpi\n        /* \"#utility.yul\":10662:10663   */\n      0x00\n        /* \"#utility.yul\":10659:10660   */\n      dup1\n        /* \"#utility.yul\":10652:10664   */\n      revert\n        /* \"#utility.yul\":10603:10666   */\n    tag_267:\n        /* \"#utility.yul\":10550:10672   */\n      pop\n      jump\t// out\n\n    auxdata: 0xa26469706673582212208250253736d7b8893bad07ff27846b6b037a0f708e21a234bdb9bc0ec1f5c20b64736f6c63430008070033\n}\n",
				"bytecode": {
					"linkReferences": {},
					"object": "60806040526103e8600055620f4240600381905550600354600160003373ffffffffffffffffffffffffffffffffffffffff1673ffffffffffffffffffffffffffffffffffffffff168152602001908152602001600020819055506112fb806100696000396000f3fe60806040526004361061009c5760003560e01c806370a082311161006457806370a082311461019c578063758f38d7146101d95780637e72fb521461020457806395d89b4114610234578063a9059cbb1461025f578063dd62ed3e1461029c5761009c565b806306fdde03146100a1578063095ea7b3146100cc57806318160ddd1461010957806323b872dd14610134578063313ce56714610171575b600080fd5b3480156100ad57600080fd5b506100b66102d9565b6040516100c39190610df6565b60405180910390f35b3480156100d857600080fd5b506100f360048036038101906100ee9190610d12565b610312565b6040516101009190610ddb565b60405180910390f35b34801561011557600080fd5b5061011e610404565b60405161012b9190610e38565b60405180910390f35b34801561014057600080fd5b5061015b60048036038101906101569190610cbf565b61040e565b6040516101689190610ddb565b60405180910390f35b34801561017d57600080fd5b5061018661078e565b6040516101939190610e53565b60405180910390f35b3480156101a857600080fd5b506101c360048036038101906101be9190610c52565b610793565b6040516101d09190610e38565b60405180910390f35b3480156101e557600080fd5b506101ee6107dc565b6040516101fb9190610e38565b60405180910390f35b61021e60048036038101906102199190610c52565b6107e2565b60405161022b9190610ddb565b60405180910390f35b34801561024057600080fd5b5061024961092e565b6040516102569190610df6565b60405180910390f35b34801561026b57600080fd5b5061028660048036038101906102819190610d12565b610967565b6040516102939190610ddb565b60405180910390f35b3480156102a857600080fd5b506102c360048036038101906102be9190610c7f565b610b4e565b6040516102d09190610e38565b60405180910390f35b6040518060400160405280600a81526020017f426c6f636b546f6b656e0000000000000000000000000000000000000000000081525081565b600081600260003373ffffffffffffffffffffffffffffffffffffffff1673ffffffffffffffffffffffffffffffffffffffff16815260200190815260200160002060008573ffffffffffffffffffffffffffffffffffffffff1673ffffffffffffffffffffffffffffffffffffffff168152602001908152602001600020819055508273ffffffffffffffffffffffffffffffffffffffff163373ffffffffffffffffffffffffffffffffffffffff167f8c5be1e5ebec7d5bd14f71427d1e84f3dd0314c0f7b2291e5b200ac8c7c3b925846040516103f29190610e38565b60405180910390a36001905092915050565b6000600354905090565b6000600160008573ffffffffffffffffffffffffffffffffffffffff1673ffffffffffffffffffffffffffffffffffffffff1681526020019081526020016000205482111561045c57600080fd5b600260008573ffffffffffffffffffffffffffffffffffffffff1673ffffffffffffffffffffffffffffffffffffffff16815260200190815260200160002060003373ffffffffffffffffffffffffffffffffffffffff1673ffffffffffffffffffffffffffffffffffffffff168152602001908152602001600020548211156104e557600080fd5b61053782600160008773ffffffffffffffffffffffffffffffffffffffff1673ffffffffffffffffffffffffffffffffffffffff16815260200190815260200160002054610bd590919063ffffffff16565b600160008673ffffffffffffffffffffffffffffffffffffffff1673ffffffffffffffffffffffffffffffffffffffff1681526020019081526020016000208190555061060982600260008773ffffffffffffffffffffffffffffffffffffffff1673ffffffffffffffffffffffffffffffffffffffff16815260200190815260200160002060003373ffffffffffffffffffffffffffffffffffffffff1673ffffffffffffffffffffffffffffffffffffffff16815260200190815260200160002054610bd590919063ffffffff16565b600260008673ffffffffffffffffffffffffffffffffffffffff1673ffffffffffffffffffffffffffffffffffffffff16815260200190815260200160002060003373ffffffffffffffffffffffffffffffffffffffff1673ffffffffffffffffffffffffffffffffffffffff168152602001908152602001600020819055506106db82600160008673ffffffffffffffffffffffffffffffffffffffff1673ffffffffffffffffffffffffffffffffffffffff16815260200190815260200160002054610bfc90919063ffffffff16565b600160008573ffffffffffffffffffffffffffffffffffffffff1673ffffffffffffffffffffffffffffffffffffffff168152602001908152602001600020819055508273ffffffffffffffffffffffffffffffffffffffff168473ffffffffffffffffffffffffffffffffffffffff167fddf252ad1be2c89b69c2b068fc378daa952ba7f163c4a11628f55a4df523b3ef8460405161077b9190610e38565b60405180910390a3600190509392505050565b601281565b6000600160008373ffffffffffffffffffffffffffffffffffffffff1673ffffffffffffffffffffffffffffffffffffffff168152602001908152602001600020549050919050565b60005481565b600080341015610827576040517f08c379a000000000000000000000000000000000000000000000000000000000815260040161081e90610e18565b60405180910390fd5b600080546012600a6108399190610f64565b60016108459190611082565b346108509190610ee0565b61085a9190611082565b90506108668382610967565b5080600160008573ffffffffffffffffffffffffffffffffffffffff1673ffffffffffffffffffffffffffffffffffffffff16815260200190815260200160002060008282546108b69190610e8a565b9250508190555080600360008282546108cf9190610e8a565b925050819055508273ffffffffffffffffffffffffffffffffffffffff167f75424253909c2f4460f8a59099700e980f5b484608c4fdd79f600f5162ac88a53460405161091c9190610e38565b60405180910390a26001915050919050565b6040518060400160405280600381526020017f42544b000000000000000000000000000000000000000000000000000000000081525081565b6000600160003373ffffffffffffffffffffffffffffffffffffffff1673ffffffffffffffffffffffffffffffffffffffff168152602001908152602001600020548211156109b557600080fd5b610a0782600160003373ffffffffffffffffffffffffffffffffffffffff1673ffffffffffffffffffffffffffffffffffffffff16815260200190815260200160002054610bd590919063ffffffff16565b600160003373ffffffffffffffffffffffffffffffffffffffff1673ffffffffffffffffffffffffffffffffffffffff16815260200190815260200160002081905550610a9c82600160008673ffffffffffffffffffffffffffffffffffffffff1673ffffffffffffffffffffffffffffffffffffffff16815260200190815260200160002054610bfc90919063ffffffff16565b600160008573ffffffffffffffffffffffffffffffffffffffff1673ffffffffffffffffffffffffffffffffffffffff168152602001908152602001600020819055508273ffffffffffffffffffffffffffffffffffffffff163373ffffffffffffffffffffffffffffffffffffffff167fddf252ad1be2c89b69c2b068fc378daa952ba7f163c4a11628f55a4df523b3ef84604051610b3c9190610e38565b60405180910390a36001905092915050565b6000600260008473ffffffffffffffffffffffffffffffffffffffff1673ffffffffffffffffffffffffffffffffffffffff16815260200190815260200160002060008373ffffffffffffffffffffffffffffffffffffffff1673ffffffffffffffffffffffffffffffffffffffff16815260200190815260200160002054905092915050565b600082821115610be857610be7611198565b5b8183610bf491906110dc565b905092915050565b6000808284610c0b9190610e8a565b905083811015610c1e57610c1d611198565b5b8091505092915050565b600081359050610c3781611297565b92915050565b600081359050610c4c816112ae565b92915050565b600060208284031215610c6857610c67611225565b5b6000610c7684828501610c28565b91505092915050565b60008060408385031215610c9657610c95611225565b5b6000610ca485828601610c28565b9250506020610cb585828601610c28565b9150509250929050565b600080600060608486031215610cd857610cd7611225565b5b6000610ce686828701610c28565b9350506020610cf786828701610c28565b9250506040610d0886828701610c3d565b9150509250925092565b60008060408385031215610d2957610d28611225565b5b6000610d3785828601610c28565b9250506020610d4885828601610c3d565b9150509250929050565b610d5b81611122565b82525050565b6000610d6c82610e6e565b610d768185610e79565b9350610d86818560208601611165565b610d8f8161122a565b840191505092915050565b6000610da7602183610e79565b9150610db282611248565b604082019050919050565b610dc68161114e565b82525050565b610dd581611158565b82525050565b6000602082019050610df06000830184610d52565b92915050565b60006020820190508181036000830152610e108184610d61565b905092915050565b60006020820190508181036000830152610e3181610d9a565b9050919050565b6000602082019050610e4d6000830184610dbd565b92915050565b6000602082019050610e686000830184610dcc565b92915050565b600081519050919050565b600082825260208201905092915050565b6000610e958261114e565b9150610ea08361114e565b9250827fffffffffffffffffffffffffffffffffffffffffffffffffffffffffffffffff03821115610ed557610ed46111c7565b5b828201905092915050565b6000610eeb8261114e565b9150610ef68361114e565b925082610f0657610f056111f6565b5b828204905092915050565b6000808291508390505b6001851115610f5b57808604811115610f3757610f366111c7565b5b6001851615610f465780820291505b8081029050610f548561123b565b9450610f1b565b94509492505050565b6000610f6f8261114e565b9150610f7a83611158565b9250610fa77fffffffffffffffffffffffffffffffffffffffffffffffffffffffffffffffff8484610faf565b905092915050565b600082610fbf576001905061107b565b81610fcd576000905061107b565b8160018114610fe35760028114610fed5761101c565b600191505061107b565b60ff841115610fff57610ffe6111c7565b5b8360020a915084821115611016576110156111c7565b5b5061107b565b5060208310610133831016604e8410600b84101617156110515782820a90508381111561104c5761104b6111c7565b5b61107b565b61105e8484846001610f11565b92509050818404811115611075576110746111c7565b5b81810290505b9392505050565b600061108d8261114e565b91506110988361114e565b9250817fffffffffffffffffffffffffffffffffffffffffffffffffffffffffffffffff04831182151516156110d1576110d06111c7565b5b828202905092915050565b60006110e78261114e565b91506110f28361114e565b925082821015611105576111046111c7565b5b828203905092915050565b600061111b8261112e565b9050919050565b60008115159050919050565b600073ffffffffffffffffffffffffffffffffffffffff82169050919050565b6000819050919050565b600060ff82169050919050565b60005b83811015611183578082015181840152602081019050611168565b83811115611192576000848401525b50505050565b7f4e487b7100000000000000000000000000000000000000000000000000000000600052600160045260246000fd5b7f4e487b7100000000000000000000000000000000000000000000000000000000600052601160045260246000fd5b7f4e487b7100000000000000000000000000000000000000000000000000000000600052601260045260246000fd5b600080fd5b6000601f19601f8301169050919050565b60008160011c9050919050565b7f596f752063616e6e6f74206d696e742042544b2077697468207a65726f20455460008201527f4800000000000000000000000000000000000000000000000000000000000000602082015250565b6112a081611110565b81146112ab57600080fd5b50565b6112b78161114e565b81146112c257600080fd5b5056fea26469706673582212208250253736d7b8893bad07ff27846b6b037a0f708e21a234bdb9bc0ec1f5c20b64736f6c63430008070033",
					"opcodes": "PUSH1 0x80 PUSH1 0x40 MSTORE PUSH2 0x3E8 PUSH1 0x0 SSTORE PUSH3 0xF4240 PUSH1 0x3 DUP2 SWAP1 SSTORE POP PUSH1 0x3 SLOAD PUSH1 0x1 PUSH1 0x0 CALLER PUSH20 0xFFFFFFFFFFFFFFFFFFFFFFFFFFFFFFFFFFFFFFFF AND PUSH20 0xFFFFFFFFFFFFFFFFFFFFFFFFFFFFFFFFFFFFFFFF AND DUP2 MSTORE PUSH1 0x20 ADD SWAP1 DUP2 MSTORE PUSH1 0x20 ADD PUSH1 0x0 KECCAK256 DUP2 SWAP1 SSTORE POP PUSH2 0x12FB DUP1 PUSH2 0x69 PUSH1 0x0 CODECOPY PUSH1 0x0 RETURN INVALID PUSH1 0x80 PUSH1 0x40 MSTORE PUSH1 0x4 CALLDATASIZE LT PUSH2 0x9C JUMPI PUSH1 0x0 CALLDATALOAD PUSH1 0xE0 SHR DUP1 PUSH4 0x70A08231 GT PUSH2 0x64 JUMPI DUP1 PUSH4 0x70A08231 EQ PUSH2 0x19C JUMPI DUP1 PUSH4 0x758F38D7 EQ PUSH2 0x1D9 JUMPI DUP1 PUSH4 0x7E72FB52 EQ PUSH2 0x204 JUMPI DUP1 PUSH4 0x95D89B41 EQ PUSH2 0x234 JUMPI DUP1 PUSH4 0xA9059CBB EQ PUSH2 0x25F JUMPI DUP1 PUSH4 0xDD62ED3E EQ PUSH2 0x29C JUMPI PUSH2 0x9C JUMP JUMPDEST DUP1 PUSH4 0x6FDDE03 EQ PUSH2 0xA1 JUMPI DUP1 PUSH4 0x95EA7B3 EQ PUSH2 0xCC JUMPI DUP1 PUSH4 0x18160DDD EQ PUSH2 0x109 JUMPI DUP1 PUSH4 0x23B872DD EQ PUSH2 0x134 JUMPI DUP1 PUSH4 0x313CE567 EQ PUSH2 0x171 JUMPI JUMPDEST PUSH1 0x0 DUP1 REVERT JUMPDEST CALLVALUE DUP1 ISZERO PUSH2 0xAD JUMPI PUSH1 0x0 DUP1 REVERT JUMPDEST POP PUSH2 0xB6 PUSH2 0x2D9 JUMP JUMPDEST PUSH1 0x40 MLOAD PUSH2 0xC3 SWAP2 SWAP1 PUSH2 0xDF6 JUMP JUMPDEST PUSH1 0x40 MLOAD DUP1 SWAP2 SUB SWAP1 RETURN JUMPDEST CALLVALUE DUP1 ISZERO PUSH2 0xD8 JUMPI PUSH1 0x0 DUP1 REVERT JUMPDEST POP PUSH2 0xF3 PUSH1 0x4 DUP1 CALLDATASIZE SUB DUP2 ADD SWAP1 PUSH2 0xEE SWAP2 SWAP1 PUSH2 0xD12 JUMP JUMPDEST PUSH2 0x312 JUMP JUMPDEST PUSH1 0x40 MLOAD PUSH2 0x100 SWAP2 SWAP1 PUSH2 0xDDB JUMP JUMPDEST PUSH1 0x40 MLOAD DUP1 SWAP2 SUB SWAP1 RETURN JUMPDEST CALLVALUE DUP1 ISZERO PUSH2 0x115 JUMPI PUSH1 0x0 DUP1 REVERT JUMPDEST POP PUSH2 0x11E PUSH2 0x404 JUMP JUMPDEST PUSH1 0x40 MLOAD PUSH2 0x12B SWAP2 SWAP1 PUSH2 0xE38 JUMP JUMPDEST PUSH1 0x40 MLOAD DUP1 SWAP2 SUB SWAP1 RETURN JUMPDEST CALLVALUE DUP1 ISZERO PUSH2 0x140 JUMPI PUSH1 0x0 DUP1 REVERT JUMPDEST POP PUSH2 0x15B PUSH1 0x4 DUP1 CALLDATASIZE SUB DUP2 ADD SWAP1 PUSH2 0x156 SWAP2 SWAP1 PUSH2 0xCBF JUMP JUMPDEST PUSH2 0x40E JUMP JUMPDEST PUSH1 0x40 MLOAD PUSH2 0x168 SWAP2 SWAP1 PUSH2 0xDDB JUMP JUMPDEST PUSH1 0x40 MLOAD DUP1 SWAP2 SUB SWAP1 RETURN JUMPDEST CALLVALUE DUP1 ISZERO PUSH2 0x17D JUMPI PUSH1 0x0 DUP1 REVERT JUMPDEST POP PUSH2 0x186 PUSH2 0x78E JUMP JUMPDEST PUSH1 0x40 MLOAD PUSH2 0x193 SWAP2 SWAP1 PUSH2 0xE53 JUMP JUMPDEST PUSH1 0x40 MLOAD DUP1 SWAP2 SUB SWAP1 RETURN JUMPDEST CALLVALUE DUP1 ISZERO PUSH2 0x1A8 JUMPI PUSH1 0x0 DUP1 REVERT JUMPDEST POP PUSH2 0x1C3 PUSH1 0x4 DUP1 CALLDATASIZE SUB DUP2 ADD SWAP1 PUSH2 0x1BE SWAP2 SWAP1 PUSH2 0xC52 JUMP JUMPDEST PUSH2 0x793 JUMP JUMPDEST PUSH1 0x40 MLOAD PUSH2 0x1D0 SWAP2 SWAP1 PUSH2 0xE38 JUMP JUMPDEST PUSH1 0x40 MLOAD DUP1 SWAP2 SUB SWAP1 RETURN JUMPDEST CALLVALUE DUP1 ISZERO PUSH2 0x1E5 JUMPI PUSH1 0x0 DUP1 REVERT JUMPDEST POP PUSH2 0x1EE PUSH2 0x7DC JUMP JUMPDEST PUSH1 0x40 MLOAD PUSH2 0x1FB SWAP2 SWAP1 PUSH2 0xE38 JUMP JUMPDEST PUSH1 0x40 MLOAD DUP1 SWAP2 SUB SWAP1 RETURN JUMPDEST PUSH2 0x21E PUSH1 0x4 DUP1 CALLDATASIZE SUB DUP2 ADD SWAP1 PUSH2 0x219 SWAP2 SWAP1 PUSH2 0xC52 JUMP JUMPDEST PUSH2 0x7E2 JUMP JUMPDEST PUSH1 0x40 MLOAD PUSH2 0x22B SWAP2 SWAP1 PUSH2 0xDDB JUMP JUMPDEST PUSH1 0x40 MLOAD DUP1 SWAP2 SUB SWAP1 RETURN JUMPDEST CALLVALUE DUP1 ISZERO PUSH2 0x240 JUMPI PUSH1 0x0 DUP1 REVERT JUMPDEST POP PUSH2 0x249 PUSH2 0x92E JUMP JUMPDEST PUSH1 0x40 MLOAD PUSH2 0x256 SWAP2 SWAP1 PUSH2 0xDF6 JUMP JUMPDEST PUSH1 0x40 MLOAD DUP1 SWAP2 SUB SWAP1 RETURN JUMPDEST CALLVALUE DUP1 ISZERO PUSH2 0x26B JUMPI PUSH1 0x0 DUP1 REVERT JUMPDEST POP PUSH2 0x286 PUSH1 0x4 DUP1 CALLDATASIZE SUB DUP2 ADD SWAP1 PUSH2 0x281 SWAP2 SWAP1 PUSH2 0xD12 JUMP JUMPDEST PUSH2 0x967 JUMP JUMPDEST PUSH1 0x40 MLOAD PUSH2 0x293 SWAP2 SWAP1 PUSH2 0xDDB JUMP JUMPDEST PUSH1 0x40 MLOAD DUP1 SWAP2 SUB SWAP1 RETURN JUMPDEST CALLVALUE DUP1 ISZERO PUSH2 0x2A8 JUMPI PUSH1 0x0 DUP1 REVERT JUMPDEST POP PUSH2 0x2C3 PUSH1 0x4 DUP1 CALLDATASIZE SUB DUP2 ADD SWAP1 PUSH2 0x2BE SWAP2 SWAP1 PUSH2 0xC7F JUMP JUMPDEST PUSH2 0xB4E JUMP JUMPDEST PUSH1 0x40 MLOAD PUSH2 0x2D0 SWAP2 SWAP1 PUSH2 0xE38 JUMP JUMPDEST PUSH1 0x40 MLOAD DUP1 SWAP2 SUB SWAP1 RETURN JUMPDEST PUSH1 0x40 MLOAD DUP1 PUSH1 0x40 ADD PUSH1 0x40 MSTORE DUP1 PUSH1 0xA DUP2 MSTORE PUSH1 0x20 ADD PUSH32 0x426C6F636B546F6B656E00000000000000000000000000000000000000000000 DUP2 MSTORE POP DUP2 JUMP JUMPDEST PUSH1 0x0 DUP2 PUSH1 0x2 PUSH1 0x0 CALLER PUSH20 0xFFFFFFFFFFFFFFFFFFFFFFFFFFFFFFFFFFFFFFFF AND PUSH20 0xFFFFFFFFFFFFFFFFFFFFFFFFFFFFFFFFFFFFFFFF AND DUP2 MSTORE PUSH1 0x20 ADD SWAP1 DUP2 MSTORE PUSH1 0x20 ADD PUSH1 0x0 KECCAK256 PUSH1 0x0 DUP6 PUSH20 0xFFFFFFFFFFFFFFFFFFFFFFFFFFFFFFFFFFFFFFFF AND PUSH20 0xFFFFFFFFFFFFFFFFFFFFFFFFFFFFFFFFFFFFFFFF AND DUP2 MSTORE PUSH1 0x20 ADD SWAP1 DUP2 MSTORE PUSH1 0x20 ADD PUSH1 0x0 KECCAK256 DUP2 SWAP1 SSTORE POP DUP3 PUSH20 0xFFFFFFFFFFFFFFFFFFFFFFFFFFFFFFFFFFFFFFFF AND CALLER PUSH20 0xFFFFFFFFFFFFFFFFFFFFFFFFFFFFFFFFFFFFFFFF AND PUSH32 0x8C5BE1E5EBEC7D5BD14F71427D1E84F3DD0314C0F7B2291E5B200AC8C7C3B925 DUP5 PUSH1 0x40 MLOAD PUSH2 0x3F2 SWAP2 SWAP1 PUSH2 0xE38 JUMP JUMPDEST PUSH1 0x40 MLOAD DUP1 SWAP2 SUB SWAP1 LOG3 PUSH1 0x1 SWAP1 POP SWAP3 SWAP2 POP POP JUMP JUMPDEST PUSH1 0x0 PUSH1 0x3 SLOAD SWAP1 POP SWAP1 JUMP JUMPDEST PUSH1 0x0 PUSH1 0x1 PUSH1 0x0 DUP6 PUSH20 0xFFFFFFFFFFFFFFFFFFFFFFFFFFFFFFFFFFFFFFFF AND PUSH20 0xFFFFFFFFFFFFFFFFFFFFFFFFFFFFFFFFFFFFFFFF AND DUP2 MSTORE PUSH1 0x20 ADD SWAP1 DUP2 MSTORE PUSH1 0x20 ADD PUSH1 0x0 KECCAK256 SLOAD DUP3 GT ISZERO PUSH2 0x45C JUMPI PUSH1 0x0 DUP1 REVERT JUMPDEST PUSH1 0x2 PUSH1 0x0 DUP6 PUSH20 0xFFFFFFFFFFFFFFFFFFFFFFFFFFFFFFFFFFFFFFFF AND PUSH20 0xFFFFFFFFFFFFFFFFFFFFFFFFFFFFFFFFFFFFFFFF AND DUP2 MSTORE PUSH1 0x20 ADD SWAP1 DUP2 MSTORE PUSH1 0x20 ADD PUSH1 0x0 KECCAK256 PUSH1 0x0 CALLER PUSH20 0xFFFFFFFFFFFFFFFFFFFFFFFFFFFFFFFFFFFFFFFF AND PUSH20 0xFFFFFFFFFFFFFFFFFFFFFFFFFFFFFFFFFFFFFFFF AND DUP2 MSTORE PUSH1 0x20 ADD SWAP1 DUP2 MSTORE PUSH1 0x20 ADD PUSH1 0x0 KECCAK256 SLOAD DUP3 GT ISZERO PUSH2 0x4E5 JUMPI PUSH1 0x0 DUP1 REVERT JUMPDEST PUSH2 0x537 DUP3 PUSH1 0x1 PUSH1 0x0 DUP8 PUSH20 0xFFFFFFFFFFFFFFFFFFFFFFFFFFFFFFFFFFFFFFFF AND PUSH20 0xFFFFFFFFFFFFFFFFFFFFFFFFFFFFFFFFFFFFFFFF AND DUP2 MSTORE PUSH1 0x20 ADD SWAP1 DUP2 MSTORE PUSH1 0x20 ADD PUSH1 0x0 KECCAK256 SLOAD PUSH2 0xBD5 SWAP1 SWAP2 SWAP1 PUSH4 0xFFFFFFFF AND JUMP JUMPDEST PUSH1 0x1 PUSH1 0x0 DUP7 PUSH20 0xFFFFFFFFFFFFFFFFFFFFFFFFFFFFFFFFFFFFFFFF AND PUSH20 0xFFFFFFFFFFFFFFFFFFFFFFFFFFFFFFFFFFFFFFFF AND DUP2 MSTORE PUSH1 0x20 ADD SWAP1 DUP2 MSTORE PUSH1 0x20 ADD PUSH1 0x0 KECCAK256 DUP2 SWAP1 SSTORE POP PUSH2 0x609 DUP3 PUSH1 0x2 PUSH1 0x0 DUP8 PUSH20 0xFFFFFFFFFFFFFFFFFFFFFFFFFFFFFFFFFFFFFFFF AND PUSH20 0xFFFFFFFFFFFFFFFFFFFFFFFFFFFFFFFFFFFFFFFF AND DUP2 MSTORE PUSH1 0x20 ADD SWAP1 DUP2 MSTORE PUSH1 0x20 ADD PUSH1 0x0 KECCAK256 PUSH1 0x0 CALLER PUSH20 0xFFFFFFFFFFFFFFFFFFFFFFFFFFFFFFFFFFFFFFFF AND PUSH20 0xFFFFFFFFFFFFFFFFFFFFFFFFFFFFFFFFFFFFFFFF AND DUP2 MSTORE PUSH1 0x20 ADD SWAP1 DUP2 MSTORE PUSH1 0x20 ADD PUSH1 0x0 KECCAK256 SLOAD PUSH2 0xBD5 SWAP1 SWAP2 SWAP1 PUSH4 0xFFFFFFFF AND JUMP JUMPDEST PUSH1 0x2 PUSH1 0x0 DUP7 PUSH20 0xFFFFFFFFFFFFFFFFFFFFFFFFFFFFFFFFFFFFFFFF AND PUSH20 0xFFFFFFFFFFFFFFFFFFFFFFFFFFFFFFFFFFFFFFFF AND DUP2 MSTORE PUSH1 0x20 ADD SWAP1 DUP2 MSTORE PUSH1 0x20 ADD PUSH1 0x0 KECCAK256 PUSH1 0x0 CALLER PUSH20 0xFFFFFFFFFFFFFFFFFFFFFFFFFFFFFFFFFFFFFFFF AND PUSH20 0xFFFFFFFFFFFFFFFFFFFFFFFFFFFFFFFFFFFFFFFF AND DUP2 MSTORE PUSH1 0x20 ADD SWAP1 DUP2 MSTORE PUSH1 0x20 ADD PUSH1 0x0 KECCAK256 DUP2 SWAP1 SSTORE POP PUSH2 0x6DB DUP3 PUSH1 0x1 PUSH1 0x0 DUP7 PUSH20 0xFFFFFFFFFFFFFFFFFFFFFFFFFFFFFFFFFFFFFFFF AND PUSH20 0xFFFFFFFFFFFFFFFFFFFFFFFFFFFFFFFFFFFFFFFF AND DUP2 MSTORE PUSH1 0x20 ADD SWAP1 DUP2 MSTORE PUSH1 0x20 ADD PUSH1 0x0 KECCAK256 SLOAD PUSH2 0xBFC SWAP1 SWAP2 SWAP1 PUSH4 0xFFFFFFFF AND JUMP JUMPDEST PUSH1 0x1 PUSH1 0x0 DUP6 PUSH20 0xFFFFFFFFFFFFFFFFFFFFFFFFFFFFFFFFFFFFFFFF AND PUSH20 0xFFFFFFFFFFFFFFFFFFFFFFFFFFFFFFFFFFFFFFFF AND DUP2 MSTORE PUSH1 0x20 ADD SWAP1 DUP2 MSTORE PUSH1 0x20 ADD PUSH1 0x0 KECCAK256 DUP2 SWAP1 SSTORE POP DUP3 PUSH20 0xFFFFFFFFFFFFFFFFFFFFFFFFFFFFFFFFFFFFFFFF AND DUP5 PUSH20 0xFFFFFFFFFFFFFFFFFFFFFFFFFFFFFFFFFFFFFFFF AND PUSH32 0xDDF252AD1BE2C89B69C2B068FC378DAA952BA7F163C4A11628F55A4DF523B3EF DUP5 PUSH1 0x40 MLOAD PUSH2 0x77B SWAP2 SWAP1 PUSH2 0xE38 JUMP JUMPDEST PUSH1 0x40 MLOAD DUP1 SWAP2 SUB SWAP1 LOG3 PUSH1 0x1 SWAP1 POP SWAP4 SWAP3 POP POP POP JUMP JUMPDEST PUSH1 0x12 DUP2 JUMP JUMPDEST PUSH1 0x0 PUSH1 0x1 PUSH1 0x0 DUP4 PUSH20 0xFFFFFFFFFFFFFFFFFFFFFFFFFFFFFFFFFFFFFFFF AND PUSH20 0xFFFFFFFFFFFFFFFFFFFFFFFFFFFFFFFFFFFFFFFF AND DUP2 MSTORE PUSH1 0x20 ADD SWAP1 DUP2 MSTORE PUSH1 0x20 ADD PUSH1 0x0 KECCAK256 SLOAD SWAP1 POP SWAP2 SWAP1 POP JUMP JUMPDEST PUSH1 0x0 SLOAD DUP2 JUMP JUMPDEST PUSH1 0x0 DUP1 CALLVALUE LT ISZERO PUSH2 0x827 JUMPI PUSH1 0x40 MLOAD PUSH32 0x8C379A000000000000000000000000000000000000000000000000000000000 DUP2 MSTORE PUSH1 0x4 ADD PUSH2 0x81E SWAP1 PUSH2 0xE18 JUMP JUMPDEST PUSH1 0x40 MLOAD DUP1 SWAP2 SUB SWAP1 REVERT JUMPDEST PUSH1 0x0 DUP1 SLOAD PUSH1 0x12 PUSH1 0xA PUSH2 0x839 SWAP2 SWAP1 PUSH2 0xF64 JUMP JUMPDEST PUSH1 0x1 PUSH2 0x845 SWAP2 SWAP1 PUSH2 0x1082 JUMP JUMPDEST CALLVALUE PUSH2 0x850 SWAP2 SWAP1 PUSH2 0xEE0 JUMP JUMPDEST PUSH2 0x85A SWAP2 SWAP1 PUSH2 0x1082 JUMP JUMPDEST SWAP1 POP PUSH2 0x866 DUP4 DUP3 PUSH2 0x967 JUMP JUMPDEST POP DUP1 PUSH1 0x1 PUSH1 0x0 DUP6 PUSH20 0xFFFFFFFFFFFFFFFFFFFFFFFFFFFFFFFFFFFFFFFF AND PUSH20 0xFFFFFFFFFFFFFFFFFFFFFFFFFFFFFFFFFFFFFFFF AND DUP2 MSTORE PUSH1 0x20 ADD SWAP1 DUP2 MSTORE PUSH1 0x20 ADD PUSH1 0x0 KECCAK256 PUSH1 0x0 DUP3 DUP3 SLOAD PUSH2 0x8B6 SWAP2 SWAP1 PUSH2 0xE8A JUMP JUMPDEST SWAP3 POP POP DUP2 SWAP1 SSTORE POP DUP1 PUSH1 0x3 PUSH1 0x0 DUP3 DUP3 SLOAD PUSH2 0x8CF SWAP2 SWAP1 PUSH2 0xE8A JUMP JUMPDEST SWAP3 POP POP DUP2 SWAP1 SSTORE POP DUP3 PUSH20 0xFFFFFFFFFFFFFFFFFFFFFFFFFFFFFFFFFFFFFFFF AND PUSH32 0x75424253909C2F4460F8A59099700E980F5B484608C4FDD79F600F5162AC88A5 CALLVALUE PUSH1 0x40 MLOAD PUSH2 0x91C SWAP2 SWAP1 PUSH2 0xE38 JUMP JUMPDEST PUSH1 0x40 MLOAD DUP1 SWAP2 SUB SWAP1 LOG2 PUSH1 0x1 SWAP2 POP POP SWAP2 SWAP1 POP JUMP JUMPDEST PUSH1 0x40 MLOAD DUP1 PUSH1 0x40 ADD PUSH1 0x40 MSTORE DUP1 PUSH1 0x3 DUP2 MSTORE PUSH1 0x20 ADD PUSH32 0x42544B0000000000000000000000000000000000000000000000000000000000 DUP2 MSTORE POP DUP2 JUMP JUMPDEST PUSH1 0x0 PUSH1 0x1 PUSH1 0x0 CALLER PUSH20 0xFFFFFFFFFFFFFFFFFFFFFFFFFFFFFFFFFFFFFFFF AND PUSH20 0xFFFFFFFFFFFFFFFFFFFFFFFFFFFFFFFFFFFFFFFF AND DUP2 MSTORE PUSH1 0x20 ADD SWAP1 DUP2 MSTORE PUSH1 0x20 ADD PUSH1 0x0 KECCAK256 SLOAD DUP3 GT ISZERO PUSH2 0x9B5 JUMPI PUSH1 0x0 DUP1 REVERT JUMPDEST PUSH2 0xA07 DUP3 PUSH1 0x1 PUSH1 0x0 CALLER PUSH20 0xFFFFFFFFFFFFFFFFFFFFFFFFFFFFFFFFFFFFFFFF AND PUSH20 0xFFFFFFFFFFFFFFFFFFFFFFFFFFFFFFFFFFFFFFFF AND DUP2 MSTORE PUSH1 0x20 ADD SWAP1 DUP2 MSTORE PUSH1 0x20 ADD PUSH1 0x0 KECCAK256 SLOAD PUSH2 0xBD5 SWAP1 SWAP2 SWAP1 PUSH4 0xFFFFFFFF AND JUMP JUMPDEST PUSH1 0x1 PUSH1 0x0 CALLER PUSH20 0xFFFFFFFFFFFFFFFFFFFFFFFFFFFFFFFFFFFFFFFF AND PUSH20 0xFFFFFFFFFFFFFFFFFFFFFFFFFFFFFFFFFFFFFFFF AND DUP2 MSTORE PUSH1 0x20 ADD SWAP1 DUP2 MSTORE PUSH1 0x20 ADD PUSH1 0x0 KECCAK256 DUP2 SWAP1 SSTORE POP PUSH2 0xA9C DUP3 PUSH1 0x1 PUSH1 0x0 DUP7 PUSH20 0xFFFFFFFFFFFFFFFFFFFFFFFFFFFFFFFFFFFFFFFF AND PUSH20 0xFFFFFFFFFFFFFFFFFFFFFFFFFFFFFFFFFFFFFFFF AND DUP2 MSTORE PUSH1 0x20 ADD SWAP1 DUP2 MSTORE PUSH1 0x20 ADD PUSH1 0x0 KECCAK256 SLOAD PUSH2 0xBFC SWAP1 SWAP2 SWAP1 PUSH4 0xFFFFFFFF AND JUMP JUMPDEST PUSH1 0x1 PUSH1 0x0 DUP6 PUSH20 0xFFFFFFFFFFFFFFFFFFFFFFFFFFFFFFFFFFFFFFFF AND PUSH20 0xFFFFFFFFFFFFFFFFFFFFFFFFFFFFFFFFFFFFFFFF AND DUP2 MSTORE PUSH1 0x20 ADD SWAP1 DUP2 MSTORE PUSH1 0x20 ADD PUSH1 0x0 KECCAK256 DUP2 SWAP1 SSTORE POP DUP3 PUSH20 0xFFFFFFFFFFFFFFFFFFFFFFFFFFFFFFFFFFFFFFFF AND CALLER PUSH20 0xFFFFFFFFFFFFFFFFFFFFFFFFFFFFFFFFFFFFFFFF AND PUSH32 0xDDF252AD1BE2C89B69C2B068FC378DAA952BA7F163C4A11628F55A4DF523B3EF DUP5 PUSH1 0x40 MLOAD PUSH2 0xB3C SWAP2 SWAP1 PUSH2 0xE38 JUMP JUMPDEST PUSH1 0x40 MLOAD DUP1 SWAP2 SUB SWAP1 LOG3 PUSH1 0x1 SWAP1 POP SWAP3 SWAP2 POP POP JUMP JUMPDEST PUSH1 0x0 PUSH1 0x2 PUSH1 0x0 DUP5 PUSH20 0xFFFFFFFFFFFFFFFFFFFFFFFFFFFFFFFFFFFFFFFF AND PUSH20 0xFFFFFFFFFFFFFFFFFFFFFFFFFFFFFFFFFFFFFFFF AND DUP2 MSTORE PUSH1 0x20 ADD SWAP1 DUP2 MSTORE PUSH1 0x20 ADD PUSH1 0x0 KECCAK256 PUSH1 0x0 DUP4 PUSH20 0xFFFFFFFFFFFFFFFFFFFFFFFFFFFFFFFFFFFFFFFF AND PUSH20 0xFFFFFFFFFFFFFFFFFFFFFFFFFFFFFFFFFFFFFFFF AND DUP2 MSTORE PUSH1 0x20 ADD SWAP1 DUP2 MSTORE PUSH1 0x20 ADD PUSH1 0x0 KECCAK256 SLOAD SWAP1 POP SWAP3 SWAP2 POP POP JUMP JUMPDEST PUSH1 0x0 DUP3 DUP3 GT ISZERO PUSH2 0xBE8 JUMPI PUSH2 0xBE7 PUSH2 0x1198 JUMP JUMPDEST JUMPDEST DUP2 DUP4 PUSH2 0xBF4 SWAP2 SWAP1 PUSH2 0x10DC JUMP JUMPDEST SWAP1 POP SWAP3 SWAP2 POP POP JUMP JUMPDEST PUSH1 0x0 DUP1 DUP3 DUP5 PUSH2 0xC0B SWAP2 SWAP1 PUSH2 0xE8A JUMP JUMPDEST SWAP1 POP DUP4 DUP2 LT ISZERO PUSH2 0xC1E JUMPI PUSH2 0xC1D PUSH2 0x1198 JUMP JUMPDEST JUMPDEST DUP1 SWAP2 POP POP SWAP3 SWAP2 POP POP JUMP JUMPDEST PUSH1 0x0 DUP2 CALLDATALOAD SWAP1 POP PUSH2 0xC37 DUP2 PUSH2 0x1297 JUMP JUMPDEST SWAP3 SWAP2 POP POP JUMP JUMPDEST PUSH1 0x0 DUP2 CALLDATALOAD SWAP1 POP PUSH2 0xC4C DUP2 PUSH2 0x12AE JUMP JUMPDEST SWAP3 SWAP2 POP POP JUMP JUMPDEST PUSH1 0x0 PUSH1 0x20 DUP3 DUP5 SUB SLT ISZERO PUSH2 0xC68 JUMPI PUSH2 0xC67 PUSH2 0x1225 JUMP JUMPDEST JUMPDEST PUSH1 0x0 PUSH2 0xC76 DUP5 DUP3 DUP6 ADD PUSH2 0xC28 JUMP JUMPDEST SWAP2 POP POP SWAP3 SWAP2 POP POP JUMP JUMPDEST PUSH1 0x0 DUP1 PUSH1 0x40 DUP4 DUP6 SUB SLT ISZERO PUSH2 0xC96 JUMPI PUSH2 0xC95 PUSH2 0x1225 JUMP JUMPDEST JUMPDEST PUSH1 0x0 PUSH2 0xCA4 DUP6 DUP3 DUP7 ADD PUSH2 0xC28 JUMP JUMPDEST SWAP3 POP POP PUSH1 0x20 PUSH2 0xCB5 DUP6 DUP3 DUP7 ADD PUSH2 0xC28 JUMP JUMPDEST SWAP2 POP POP SWAP3 POP SWAP3 SWAP1 POP JUMP JUMPDEST PUSH1 0x0 DUP1 PUSH1 0x0 PUSH1 0x60 DUP5 DUP7 SUB SLT ISZERO PUSH2 0xCD8 JUMPI PUSH2 0xCD7 PUSH2 0x1225 JUMP JUMPDEST JUMPDEST PUSH1 0x0 PUSH2 0xCE6 DUP7 DUP3 DUP8 ADD PUSH2 0xC28 JUMP JUMPDEST SWAP4 POP POP PUSH1 0x20 PUSH2 0xCF7 DUP7 DUP3 DUP8 ADD PUSH2 0xC28 JUMP JUMPDEST SWAP3 POP POP PUSH1 0x40 PUSH2 0xD08 DUP7 DUP3 DUP8 ADD PUSH2 0xC3D JUMP JUMPDEST SWAP2 POP POP SWAP3 POP SWAP3 POP SWAP3 JUMP JUMPDEST PUSH1 0x0 DUP1 PUSH1 0x40 DUP4 DUP6 SUB SLT ISZERO PUSH2 0xD29 JUMPI PUSH2 0xD28 PUSH2 0x1225 JUMP JUMPDEST JUMPDEST PUSH1 0x0 PUSH2 0xD37 DUP6 DUP3 DUP7 ADD PUSH2 0xC28 JUMP JUMPDEST SWAP3 POP POP PUSH1 0x20 PUSH2 0xD48 DUP6 DUP3 DUP7 ADD PUSH2 0xC3D JUMP JUMPDEST SWAP2 POP POP SWAP3 POP SWAP3 SWAP1 POP JUMP JUMPDEST PUSH2 0xD5B DUP2 PUSH2 0x1122 JUMP JUMPDEST DUP3 MSTORE POP POP JUMP JUMPDEST PUSH1 0x0 PUSH2 0xD6C DUP3 PUSH2 0xE6E JUMP JUMPDEST PUSH2 0xD76 DUP2 DUP6 PUSH2 0xE79 JUMP JUMPDEST SWAP4 POP PUSH2 0xD86 DUP2 DUP6 PUSH1 0x20 DUP7 ADD PUSH2 0x1165 JUMP JUMPDEST PUSH2 0xD8F DUP2 PUSH2 0x122A JUMP JUMPDEST DUP5 ADD SWAP2 POP POP SWAP3 SWAP2 POP POP JUMP JUMPDEST PUSH1 0x0 PUSH2 0xDA7 PUSH1 0x21 DUP4 PUSH2 0xE79 JUMP JUMPDEST SWAP2 POP PUSH2 0xDB2 DUP3 PUSH2 0x1248 JUMP JUMPDEST PUSH1 0x40 DUP3 ADD SWAP1 POP SWAP2 SWAP1 POP JUMP JUMPDEST PUSH2 0xDC6 DUP2 PUSH2 0x114E JUMP JUMPDEST DUP3 MSTORE POP POP JUMP JUMPDEST PUSH2 0xDD5 DUP2 PUSH2 0x1158 JUMP JUMPDEST DUP3 MSTORE POP POP JUMP JUMPDEST PUSH1 0x0 PUSH1 0x20 DUP3 ADD SWAP1 POP PUSH2 0xDF0 PUSH1 0x0 DUP4 ADD DUP5 PUSH2 0xD52 JUMP JUMPDEST SWAP3 SWAP2 POP POP JUMP JUMPDEST PUSH1 0x0 PUSH1 0x20 DUP3 ADD SWAP1 POP DUP2 DUP2 SUB PUSH1 0x0 DUP4 ADD MSTORE PUSH2 0xE10 DUP2 DUP5 PUSH2 0xD61 JUMP JUMPDEST SWAP1 POP SWAP3 SWAP2 POP POP JUMP JUMPDEST PUSH1 0x0 PUSH1 0x20 DUP3 ADD SWAP1 POP DUP2 DUP2 SUB PUSH1 0x0 DUP4 ADD MSTORE PUSH2 0xE31 DUP2 PUSH2 0xD9A JUMP JUMPDEST SWAP1 POP SWAP2 SWAP1 POP JUMP JUMPDEST PUSH1 0x0 PUSH1 0x20 DUP3 ADD SWAP1 POP PUSH2 0xE4D PUSH1 0x0 DUP4 ADD DUP5 PUSH2 0xDBD JUMP JUMPDEST SWAP3 SWAP2 POP POP JUMP JUMPDEST PUSH1 0x0 PUSH1 0x20 DUP3 ADD SWAP1 POP PUSH2 0xE68 PUSH1 0x0 DUP4 ADD DUP5 PUSH2 0xDCC JUMP JUMPDEST SWAP3 SWAP2 POP POP JUMP JUMPDEST PUSH1 0x0 DUP2 MLOAD SWAP1 POP SWAP2 SWAP1 POP JUMP JUMPDEST PUSH1 0x0 DUP3 DUP3 MSTORE PUSH1 0x20 DUP3 ADD SWAP1 POP SWAP3 SWAP2 POP POP JUMP JUMPDEST PUSH1 0x0 PUSH2 0xE95 DUP3 PUSH2 0x114E JUMP JUMPDEST SWAP2 POP PUSH2 0xEA0 DUP4 PUSH2 0x114E JUMP JUMPDEST SWAP3 POP DUP3 PUSH32 0xFFFFFFFFFFFFFFFFFFFFFFFFFFFFFFFFFFFFFFFFFFFFFFFFFFFFFFFFFFFFFFFF SUB DUP3 GT ISZERO PUSH2 0xED5 JUMPI PUSH2 0xED4 PUSH2 0x11C7 JUMP JUMPDEST JUMPDEST DUP3 DUP3 ADD SWAP1 POP SWAP3 SWAP2 POP POP JUMP JUMPDEST PUSH1 0x0 PUSH2 0xEEB DUP3 PUSH2 0x114E JUMP JUMPDEST SWAP2 POP PUSH2 0xEF6 DUP4 PUSH2 0x114E JUMP JUMPDEST SWAP3 POP DUP3 PUSH2 0xF06 JUMPI PUSH2 0xF05 PUSH2 0x11F6 JUMP JUMPDEST JUMPDEST DUP3 DUP3 DIV SWAP1 POP SWAP3 SWAP2 POP POP JUMP JUMPDEST PUSH1 0x0 DUP1 DUP3 SWAP2 POP DUP4 SWAP1 POP JUMPDEST PUSH1 0x1 DUP6 GT ISZERO PUSH2 0xF5B JUMPI DUP1 DUP7 DIV DUP2 GT ISZERO PUSH2 0xF37 JUMPI PUSH2 0xF36 PUSH2 0x11C7 JUMP JUMPDEST JUMPDEST PUSH1 0x1 DUP6 AND ISZERO PUSH2 0xF46 JUMPI DUP1 DUP3 MUL SWAP2 POP JUMPDEST DUP1 DUP2 MUL SWAP1 POP PUSH2 0xF54 DUP6 PUSH2 0x123B JUMP JUMPDEST SWAP5 POP PUSH2 0xF1B JUMP JUMPDEST SWAP5 POP SWAP5 SWAP3 POP POP POP JUMP JUMPDEST PUSH1 0x0 PUSH2 0xF6F DUP3 PUSH2 0x114E JUMP JUMPDEST SWAP2 POP PUSH2 0xF7A DUP4 PUSH2 0x1158 JUMP JUMPDEST SWAP3 POP PUSH2 0xFA7 PUSH32 0xFFFFFFFFFFFFFFFFFFFFFFFFFFFFFFFFFFFFFFFFFFFFFFFFFFFFFFFFFFFFFFFF DUP5 DUP5 PUSH2 0xFAF JUMP JUMPDEST SWAP1 POP SWAP3 SWAP2 POP POP JUMP JUMPDEST PUSH1 0x0 DUP3 PUSH2 0xFBF JUMPI PUSH1 0x1 SWAP1 POP PUSH2 0x107B JUMP JUMPDEST DUP2 PUSH2 0xFCD JUMPI PUSH1 0x0 SWAP1 POP PUSH2 0x107B JUMP JUMPDEST DUP2 PUSH1 0x1 DUP2 EQ PUSH2 0xFE3 JUMPI PUSH1 0x2 DUP2 EQ PUSH2 0xFED JUMPI PUSH2 0x101C JUMP JUMPDEST PUSH1 0x1 SWAP2 POP POP PUSH2 0x107B JUMP JUMPDEST PUSH1 0xFF DUP5 GT ISZERO PUSH2 0xFFF JUMPI PUSH2 0xFFE PUSH2 0x11C7 JUMP JUMPDEST JUMPDEST DUP4 PUSH1 0x2 EXP SWAP2 POP DUP5 DUP3 GT ISZERO PUSH2 0x1016 JUMPI PUSH2 0x1015 PUSH2 0x11C7 JUMP JUMPDEST JUMPDEST POP PUSH2 0x107B JUMP JUMPDEST POP PUSH1 0x20 DUP4 LT PUSH2 0x133 DUP4 LT AND PUSH1 0x4E DUP5 LT PUSH1 0xB DUP5 LT AND OR ISZERO PUSH2 0x1051 JUMPI DUP3 DUP3 EXP SWAP1 POP DUP4 DUP2 GT ISZERO PUSH2 0x104C JUMPI PUSH2 0x104B PUSH2 0x11C7 JUMP JUMPDEST JUMPDEST PUSH2 0x107B JUMP JUMPDEST PUSH2 0x105E DUP5 DUP5 DUP5 PUSH1 0x1 PUSH2 0xF11 JUMP JUMPDEST SWAP3 POP SWAP1 POP DUP2 DUP5 DIV DUP2 GT ISZERO PUSH2 0x1075 JUMPI PUSH2 0x1074 PUSH2 0x11C7 JUMP JUMPDEST JUMPDEST DUP2 DUP2 MUL SWAP1 POP JUMPDEST SWAP4 SWAP3 POP POP POP JUMP JUMPDEST PUSH1 0x0 PUSH2 0x108D DUP3 PUSH2 0x114E JUMP JUMPDEST SWAP2 POP PUSH2 0x1098 DUP4 PUSH2 0x114E JUMP JUMPDEST SWAP3 POP DUP2 PUSH32 0xFFFFFFFFFFFFFFFFFFFFFFFFFFFFFFFFFFFFFFFFFFFFFFFFFFFFFFFFFFFFFFFF DIV DUP4 GT DUP3 ISZERO ISZERO AND ISZERO PUSH2 0x10D1 JUMPI PUSH2 0x10D0 PUSH2 0x11C7 JUMP JUMPDEST JUMPDEST DUP3 DUP3 MUL SWAP1 POP SWAP3 SWAP2 POP POP JUMP JUMPDEST PUSH1 0x0 PUSH2 0x10E7 DUP3 PUSH2 0x114E JUMP JUMPDEST SWAP2 POP PUSH2 0x10F2 DUP4 PUSH2 0x114E JUMP JUMPDEST SWAP3 POP DUP3 DUP3 LT ISZERO PUSH2 0x1105 JUMPI PUSH2 0x1104 PUSH2 0x11C7 JUMP JUMPDEST JUMPDEST DUP3 DUP3 SUB SWAP1 POP SWAP3 SWAP2 POP POP JUMP JUMPDEST PUSH1 0x0 PUSH2 0x111B DUP3 PUSH2 0x112E JUMP JUMPDEST SWAP1 POP SWAP2 SWAP1 POP JUMP JUMPDEST PUSH1 0x0 DUP2 ISZERO ISZERO SWAP1 POP SWAP2 SWAP1 POP JUMP JUMPDEST PUSH1 0x0 PUSH20 0xFFFFFFFFFFFFFFFFFFFFFFFFFFFFFFFFFFFFFFFF DUP3 AND SWAP1 POP SWAP2 SWAP1 POP JUMP JUMPDEST PUSH1 0x0 DUP2 SWAP1 POP SWAP2 SWAP1 POP JUMP JUMPDEST PUSH1 0x0 PUSH1 0xFF DUP3 AND SWAP1 POP SWAP2 SWAP1 POP JUMP JUMPDEST PUSH1 0x0 JUMPDEST DUP4 DUP2 LT ISZERO PUSH2 0x1183 JUMPI DUP1 DUP3 ADD MLOAD DUP2 DUP5 ADD MSTORE PUSH1 0x20 DUP2 ADD SWAP1 POP PUSH2 0x1168 JUMP JUMPDEST DUP4 DUP2 GT ISZERO PUSH2 0x1192 JUMPI PUSH1 0x0 DUP5 DUP5 ADD MSTORE JUMPDEST POP POP POP POP JUMP JUMPDEST PUSH32 0x4E487B7100000000000000000000000000000000000000000000000000000000 PUSH1 0x0 MSTORE PUSH1 0x1 PUSH1 0x4 MSTORE PUSH1 0x24 PUSH1 0x0 REVERT JUMPDEST PUSH32 0x4E487B7100000000000000000000000000000000000000000000000000000000 PUSH1 0x0 MSTORE PUSH1 0x11 PUSH1 0x4 MSTORE PUSH1 0x24 PUSH1 0x0 REVERT JUMPDEST PUSH32 0x4E487B7100000000000000000000000000000000000000000000000000000000 PUSH1 0x0 MSTORE PUSH1 0x12 PUSH1 0x4 MSTORE PUSH1 0x24 PUSH1 0x0 REVERT JUMPDEST PUSH1 0x0 DUP1 REVERT JUMPDEST PUSH1 0x0 PUSH1 0x1F NOT PUSH1 0x1F DUP4 ADD AND SWAP1 POP SWAP2 SWAP1 POP JUMP JUMPDEST PUSH1 0x0 DUP2 PUSH1 0x1 SHR SWAP1 POP SWAP2 SWAP1 POP JUMP JUMPDEST PUSH32 0x596F752063616E6E6F74206D696E742042544B2077697468207A65726F204554 PUSH1 0x0 DUP3 ADD MSTORE PUSH32 0x4800000000000000000000000000000000000000000000000000000000000000 PUSH1 0x20 DUP3 ADD MSTORE POP JUMP JUMPDEST PUSH2 0x12A0 DUP2 PUSH2 0x1110 JUMP JUMPDEST DUP2 EQ PUSH2 0x12AB JUMPI PUSH1 0x0 DUP1 REVERT JUMPDEST POP JUMP JUMPDEST PUSH2 0x12B7 DUP2 PUSH2 0x114E JUMP JUMPDEST DUP2 EQ PUSH2 0x12C2 JUMPI PUSH1 0x0 DUP1 REVERT JUMPDEST POP JUMP INVALID LOG2 PUSH5 0x6970667358 0x22 SLT KECCAK256 DUP3 POP 0x25 CALLDATACOPY CALLDATASIZE 0xD7 0xB8 DUP10 EXTCODESIZE 0xAD SMOD SELFDESTRUCT 0x27 DUP5 PUSH12 0x6B037A0F708E21A234BDB9BC 0xE 0xC1 CREATE2 0xC2 SIGNEXTEND PUSH5 0x736F6C6343 STOP ADDMOD SMOD STOP CALLER "
				},
				"gasEstimates": {
					"creation": {
						"codeDepositCost": "971800",
						"executionCost": "69507",
						"totalCost": "1041307"
					},
					"external": {
						"allowance(address,address)": "infinite",
						"approve(address,uint256)": "infinite",
						"balanceOf(address)": "2841",
						"buyToken(address)": "infinite",
						"decimals()": "424",
						"name()": "infinite",
						"oneBTK()": "2451",
						"symbol()": "infinite",
						"totalSupply()": "2482",
						"transfer(address,uint256)": "infinite",
						"transferFrom(address,address,uint256)": "infinite"
					}
				},
				"methodIdentifiers": {
					"allowance(address,address)": "dd62ed3e",
					"approve(address,uint256)": "095ea7b3",
					"balanceOf(address)": "70a08231",
					"buyToken(address)": "7e72fb52",
					"decimals()": "313ce567",
					"name()": "06fdde03",
					"oneBTK()": "758f38d7",
					"symbol()": "95d89b41",
					"totalSupply()": "18160ddd",
					"transfer(address,uint256)": "a9059cbb",
					"transferFrom(address,address,uint256)": "23b872dd"
				}
			},
			"userdoc": {
				"kind": "user",
				"methods": {},
				"version": 1
			}
		}
	}
}